:100000006F30307800000000162E0000182E00001F
:1000100000000000803F0000000000000000000021
:10002000803F0000803F0000000000000000000052
:10003000803F000000000000803F00000000000042
:10004000803F0000803F0000803F0000803F0000B4
:10005000803F0000803F0000803F0000803F0000A4
:10006000803F0000803F0000803F0000803F000094
:10007000803F0000803F0000803F0000803F000084
:10008000803F0000803F0000803F0000803F000074
:10009000803F0000803F0000803F0000803F000064
:1000A000803F0000803F0000803F0000803F000054
:1000B000803F0000803F0000403B0000803F000088
:1000C000803F0000803F0000803F0000803F000034
:1000D000803F0000362E0000803F0000803F00007F
:1000E000803F0000803F0000803F0000803F000014
:1000F000803F0000803F0000803F0000803F000004
:1001000000000000803F0000803F0000803F0000B2
:10011000803F0000803F0000803F0000803F0000E3
:10012000803F0000803F0000803F0000803F0000D3
:10013000803F0000803F0000803F0000803F0000C3
:10014000803F0000803F0000803F0000803F0000B3
:10015000803F0000803F0000803F0000803F0000A3
:10016000803F0000803F0000803F0000803F000093
:10017000803F0000803F0000803F0000803F000083
:10018000803F0000803F0000803F0000803F000073
:10019000803F0000803F0000803F0000803F000063
:1001A000397101436EC619A0397141536AC866CAD4
:1001B00062CC5ECE21A00100397101535AD056D2D3
:1001C00052D44ED64AD826DA22DC06DE330161400C
:1001D0008282010041114AC026C222C406C6828220
:1001E000B24D4101024D924C224CB24B41010100F3
:1001F000024B924A224AB24941010100024992440B
:100200002244B240410182802A8311C62300B300F8
:100210007D16050365FE82802A8309CA8383050053
:10022000230073007D16050385056DFA8280EFF2C9
:100230007FFA371402401C401397A700634307025C
:1002400081450565EF4060281C40939747491CC0D5
:100250001C40939747291CC01C401397A700E35DDF
:1002600007FE0545EF40802A85450565EF40E025FE
:1002700071B7EFF23FF619C15D3F49B7814505659A
:10028000EF40A0240145EF406028371702401C438F
:10029000939747491CC3D5B7EFF2DFF339C119650E
:1002A0001305C557EF50603F5937B7470240254700
:1002B0002380E710938707101387018898D7138747
:1002C000018CD8D31307002098D3130710F8238884
:1002D000E702D84B13178729D8CB1307800398A3BD
:1002E00031BFB74702401D472380E7105937CDBFC4
:1002F000374702408347671313070710858B99CF51
:100300008546230BD702563B858A81CE09C989468B
:100310006306D50018231377070211C389473E856A
:1003200082808147EDBFB747024093870710DE3BCD
:1003300013070020014593F70760638BE70005452D
:1003400081CB1307004009456384E7001305F00FD4
:100350008280EFF23FE83744024013040410A30107
:1003600004005C549304C01293E717005CD48347E5
:100370006403C18B89C7C147230BF40241B5130540
:100380004006FD14EF40A03EFDF0CDBFB747024050
:1003900003D74713058B15C7938707109C2393F743
:1003A000070295E3EFF21FE32A84B53F08A0B747A1
:1003B000024003C707100145136707022380E710B7
:1003C00035BD59458280B747024003C70710014534
:1003D000136707022380E7108280EFF2FFDC1379B6
:1003E000F500A547B289631FF90493F50518B335E5
:1003F000B000939C850033E5AC0037440240814453
:10040000131A052913040410C14A054BF15B254C4E
:100410002322440123045401130D803E1C24C18B6C
:1004200089EB7D1D0545334D0D08EF404034E31742
:100430000DFE5C40C19B5CC01C24C18B99EB130575
:10044000E00F81A88547814CE317F9FA93F505146D
:1004500079BF03456403058905C1230B64031305B4
:10046000800CEF40C0305E38858BD5C31C2093F7DD
:100470000702BDC3554531A81C24C18BD1C7183410
:100480009377F700631489038D466395D7006398CB
:100490000C0089BBAD466390D702E39C0CFE1D8B1C
:1004A00075171DCB95CB13E50702E5B79376B7001B
:1004B0000946E380C6FEB946638DD704A946639911
:1004C000D702638B0904C167F917B3B7370193B734
:1004D0001700B389F940FD143D45EF4040298504DC
:1004E00093F4F40FA947E395F4F21305000255B70E
:1004F000B546E309D9FAE3E426F58546E304D9FADB
:10050000A546E31ED9F261BF23047401F1B7594532
:1005100049B71305E002B5BF1305A0029DBFEFF276
:10052000BFC92A8AB289130540062E89EF402024CC
:100530006384090023900900374402401304041027
:10054000A1473D661CCC130606A68145354571358D
:1005500071E55C40138B018893F7F7CF83546B00F0
:1005600093E707105CC0C1C0630F090683070B0047
:1005700063D0070C938A018C13054006EF40201FBF
:100580004C403D66130606A6B3C505082545B135A2
:1005900051E55C4093C707105CC0584CA687637553
:1005A00097005C4CB3C707086387090003D70900AD
:1005B0003E972390E9000147B34607086391D706A9
:1005C000584C01CF544C1307FAFF758F19E73E9929
:1005D000B387F440B3C40708C5F0B7470240938718
:1005E000071023AC07001305400637440240EF40D4
:1005F000001813040410084C3D66130606A61335B4
:1006000015003305A0406199930500102505F133CD
:1006100011E51C4C81C75C4C91C35D45D1BEB3064E
:1006200057019022B306E900050790A271B75689D9
:1006300013054006EF40A013B3579A0A1CCCCA8A90
:10064000184CB3872A41B3C70708639EE7024C40A2
:100650003D66130606A6B3C505080545BD3B5DFD11
:100660005C4093C707105CC01C4CB387F440B3C414
:10067000070863880900184C83D70900BA972390AC
:10068000F900D5F48DB703C70A00DA97850A98A355
:1006900045BFEFF23FB4A1470111370700011CA18C
:1006A000938701881307076898C337071200D8C3D8
:1006B0002A8408211306E1012EC6953509E9B245C1
:1006C000B887FC311CA0C54763E3E7005D450561C1
:1006D00035B6EFF27FAEB7040002411113840188F2
:1006E000328A93840468370904003686AA892EC6A4
:1006F00004C02322240136C41D3515E522468D474A
:100700005D451A2263F1E702B2454E85BC31B8213E
:10071000A207D98FB3D7470B1EA22322240104C0FE
:100720001E227EA0ED3B4101E1B4EFF2BFAA938708
:1007300001881307005098C3AEA32E84014681455B
:1007400023A20700E93BAA8411E91374F407B74711
:100750000240A38187101545EF408004268579BCAF
:100760000567938701881307079098C3AEA30146D6
:10077000814523A2070065B39387018823A2070060
:1007800013072010CEA30146814598C349BBEFF261
:100790007FA42E848E2141113289136505090146FB
:1007A00036C62539B246AA840DE1B7470240938781
:1007B0000710D04F9385018C92A24A8533460608D4
:1007C000A13C1E2093C707101EA0268541013DB401
:1007D000EFF25FA0AA8441112E8413850188B285AF
:1007E000368636C6153C3246B74702400E20938700
:1007F000071090CF13E504010146C53609E51E2018
:1008000093C707101EA04101D5BA01458280EFF2BF
:100810007F9CEF10B02EEF10B0277D151375F50FEC
:100820009307D00F63E4A7000545C9BA93854182B9
:1008300013858182EF10103865F903A541821305F5
:1008400005E03335A000D5B7EFF2DF9841113284CF
:10085000B384C600631594000145410145B203A667
:10086000418222852EC6EF105039B245050493858A
:1008700005206DD10545D5B718311C2122075D8FA4
:100880003C212831C207D98F62055D8D82801C31E1
:1008900018215431A207D98F3821A20630314207DE
:1008A0005D8F5C216C316206DD8E7C21E205336553
:1008B000E600C207D58FDD8D82801C49F915F91736
:1008C00063F9F5003E251855B387B7023385E70075
:1008D000828001458280EFF2FF8F18412A8499C9F6
:1008E0009C451CD19C49F43193F707F0D58F5CD11E
:1008F000FC451CD5045B13854403BD3F08C4138528
:100900008403713708C84CC883C71402232E04001F
:10091000898B7CB06FF09F8E1C41FD5695CB3E8736
:10092000FD451306A00383060700050713F8F60F1D
:1009300063FF0501E399C6FE8385070013060003E4
:10094000FD566397C50089076314F70018C18146F7
:100950003685828019E9814725459CC182802545DD
:1009600081479CC141016FF07F89EFF2BF861C4136
:1009700041112A84EDD798237DD35621FA23E390A1
:10098000E6FE88332EC651350589B24569F91C400B
:10099000C9BFEFF23F8441112E849305501B32C62C
:1009A000EF10E03F1307F00F3246AA87637EA700DF
:1009B000054701456377C70013D7870018A01CB00F
:1009C000094541016FF09F8309C601C508A005458F
:1009D000CDBF0145FDB71C4D6385B702EFF28FFF18
:1009E00041112E862EC62A8493054503083185467B
:1009F000A13D324619C105457D5610CC41016FF02D
:100A0000EFFF01458280EFF2EFFCFD572302050066
:100A10001CCD2A84C93711497DE18344342383479F
:100A200024232A89A204DD8CAD67938757A5639B95
:100A3000F40099652D469385455813054403EF400E
:100A4000106769C1034744039307870193F7F70FC2
:100A500093B7270081E7130757F151EBAD679387F1
:100A600057A5639BF40099652146938505591305A5
:100A70006408EF40D06341C5834704048346F40310
:100A800003471404A207D58F938707E0ADE325C37E
:100A90009307F7FFF98FA1EF83473404034724043A
:100AA000A207D98FA9C7834744040547FD17636090
:100AB000F7048347640403475404A207D98F85CB06
:100AC0008347840403477404A207D98F1307F007F0
:100AD0006368F700130544054533C1676369F50092
:100AE0008347B4040347A404A207D98F89EBAD67F9
:100AF000938757A59D8CB3349000138924004A85B1
:100B00006FF0CFEF0549E5BFAA8705456373B514BC
:100B1000EFF28FEA84432E84984863FDE500982025
:100B20008D46630BD70C63E9E600630DA704894784
:100B30006303F70A6FF0CFEB9146E31DD7FE904BAE
:100B4000D84BEC33B366E60099C2944799E2054569
:100B5000F5F194470945B306D440639EA50A93076F
:100B6000F6FF13361600118F5E07A583BA97BA24D5
:100B70000545B3D7E702E3EFD7FA6388F60C130510
:100B800014004DBF13D915009C502E999355990010
:100B9000BE952685893519C17D5569BF9C5093093D
:100BA000190093D599001379F91F2699BE952685CA
:100BB000034949030D356DF193F9F91FA69903C552
:100BC0004903058822053365250119C011819DB7A8
:100BD0005205518185B79C50A1812685BE95E53B84
:100BE00045FD06041374E41F26940345540383470C
:100BF000440322055D8D3DBF9C509D812685BE9599
:100C0000D93B59F90A04138544031374C41F229570
:100C1000A531120565BF0D476395E500984FE3E0E8
:100C2000E6F6DC4F9DE39C50935574002685BE95F7
:100C30005D333DF113152400938444031375C51FE0
:100C400026951D391315F549F5B5370500807D1535
:100C5000D5B58280EFF24FD6044103290503114731
:100C600094202A8413090902B70700106384E60060
:100C7000B70720006364F900232C04021C5C85C3C1
:100C80009379F91F639809044C5885071CDC99E98E
:100C90009A249357590063EFE702232C040211456D
:100CA0006FF00FD5BE2413579900FD17F98F9DE300
:100CB0002285993DAA8585470945E3F3B7FE7D570F
:100CC0003E85E38FE5FC9C48E3F9F5FC4CD826858E
:100CD000ED3608DC93844403CE942328240344DCBB
:100CE00001457DBFEFF24FCD0441004541119820F1
:100CF000232805022A8919EC894763E8E7009E2426
:100D000085EB094541016FF0AFCEDC50A303050030
:100D1000FDD73E8483D9A400A2857D5AA60901444B
:100D2000854A6378340326852EC6413EB24519A014
:100D3000C8508145232CA902232AB90279D12580E4
:100D4000229593844403232CA902232E9902014562
:100D500055BF4A85553BAA85630A4501E3F3AAFAC4
:100D60009C48E370F5FA3304344165BF054559BF2B
:100D7000EFF28FC4011123A005002EC6713EFD576E
:100D80006307F53403A40183314509CCB24580C122
:100D90001C2081EF083023000400953C9377150058
:100DA0000D4591CB05616FF0AFC40830B93C0589A2
:100DB00075F10145C5BF81452285B1318947631170
:100DC000F50404081309A41F130AA423A6894A855D
:100DD000653423A0A90041099109E31A49FF138949
:100DE000040185498C400D4589C52285293963F167
:100DF000A9029104E39824FF91476319F500F5A82F
:100E00009147630CF50E854763F4A700354559BF3C
:100E10008547032A8401631BF514AD47930600043C
:100E20003307F4000347470375F38507E39AD7FEBA
:100E30008347D4090347C409A207D98F13070010B9
:100E4000E396E7FC0347040AA547E311F7FC130503
:100E5000C407EFF0DFA3B309AA00B3B74901AE9707
:100E6000D5F713058408EFF03FA18347240A48C84B
:100E700005473CB0E39CE7F88344140AB314902878
:100E8000B3C4040826A4D9D013050409EFF0DF9EEB
:100E9000B7070080F517E3EBA7F6B384A402930726
:100EA00025001CC8232E44011305C408EFF0DF9C65
:100EB0003309AA002324240313054408EFF0DF9B21
:100EC000529508D02699E36399F4E3E129F51305D7
:100ED0004409EFF07F9A48D08144014993091008F2
:100EE00085E03E24E374F9F24C502285EFF0FF9C3C
:100EF000B305A9002285C53419C1054565B50509A5
:100F0000B307940083C747036387370193840402C0
:100F100093F4F41FF1B713854401130944034A9570
:100F2000EFF09F958547AA84E3F2A7EE1C48E37F84
:100F3000F5EC3E241307E5FFFD59B387E70218548B
:100F4000BA975CD41C5093D574002285BE95EFF0FF
:100F50009FA845F513F5F40733452521EFF0DF9100
:100F6000630535178504E30F95FC4DB583470404ED
:100F70000347F403A207D98F13070020E398E7E89B
:100F80008349B4048347A404A209B3E9F900639731
:100F9000090013058405EFF03F8EAA890349440434
:100FA000232A340105479307F9FFA301240193F78E
:100FB000F70FE36DF7E4034B140423156401E30713
:100FC0000BE49307FBFFB3F76701E39107E4834A60
:100FD000640483475404A20AB3EAFA0023145401B8
:100FE00093F7FA00E39407E283448404834774048C
:100FF000A20433E5F40009E513054405EFF0DF87AB
:10100000034734048347240422075D8FE30007E08D
:10101000B307390393D64A00BA96BE96E368D5DE85
:10102000B304D540E3E464DFB3D4640337060010AF
:101030005516E36D96DC416655160D4963679600BB
:1010400005695519333999000509D29689045297D3
:1010500014D404C8232E440118D08D466318D90433
:101060008347F4050347E405A207D98FB3E7FA00E5
:10107000E39E07D813050406EFF01F808A049384CB
:10108000F41F48D0A580E3E399D883D7C182230019
:10109000240185072396F1827EA0B707002093875D
:1010A00087555CC4938701B01CD821B3E3800AD66E
:1010B0003385E70089476314F9008604C9B7B3A7ED
:1010C000942085838588BE945DBF11497DBF2D45E1
:1010D000D1B9BC3DB42D2A87A20733E5D7008D478F
:1010E0006318F700DC39D829A207D98FC2075D8DB4
:1010F0008280EFF26F8B832905002A84930BF00F17
:101100001145DE842A8A21493D4B930A50080C5C24
:1011100089E5630C0512114505A84E85EFF0BF8BDC
:1011200005E55C5C982365DB83C609006392461382
:101130006317571D1C5808400C5C7CC40329050329
:10114000EFF07F8909C50545232C040201A24C5C00
:101150009C21638457010945C5BF130600024A85D7
:10116000EFF08F8B834A190093070020850A960AB7
:1011700013870AFAE3E1E7FE2285E93CE30D45FD2A
:1011800061F50C5C0840EFF01F8555FD4C5C930742
:10119000000C9821E311F7FC130600023305C90087
:1011A000EFF08F87834739023D479387C702B3D754
:1011B000E7029607E3E1FAFA130A0004914B130CD5
:1011C000100C130B00262285EFF0DFA8E30575F95C
:1011D00025FD0C5C0840EFF01F80AA842DF54C5CC7
:1011E0009C21E39A87F7630C6A05330549011306CE
:1011F0000002130A0A02EFF02F82E3665AFD6360D1
:101200004B050347190081470946050716076393F5
:10121000C400914493D61700BE07B697B306990051
:1012200094228504B697B3C70708E3E2E4FE0347B8
:101230003900834629002207558FE39EE7F083A7F4
:101240000903DC2393F7F7037CA001456FE09FF9C6
:10125000B4371306B7F193F6F60374A04DCA13061C
:1012600027FD55C613F6F6FD6303260B6397660B41
:1012700093760704D9CA9374F70B185883CBD70019
:1012800078C4D83763157709B83FB42F2207558F34
:101290003DEF9823354383A8C9001377F7FB7D17EB
:1012A00033076702A165416805469385859C7D18D3
:1012B000130EF00FB306B5009422BE9683CE06003F
:1012C0009432A206B3E6D60131C66362EE04332639
:1012D000172116A2050736860505E31D65FC9C232C
:1012E00093D7674891CB09CA9307F00F63E1E702F0
:1012F0003327172123100700FD1493F4F40F2285E0
:10130000EFF05F95E30505E081B5E30C97F69304F4
:10131000F00FF5B7E38206FDDDBF85E09386B700E9
:10132000902313D714009E04269785073297937451
:10133000F70FE397D7FEE38A9BF0FD577CC431B7E4
:10134000EFE21FE61C4101112A842E893EC2830769
:101350000900138717FD2DCF938747FAB5CB2324B8
:101360000400232E040083470900FD4B63F4FB06B1
:1013700099679387C7593EC61C40014C130AC005A4
:1013800083A9C700930AF00703450900050939CD71
:101390009305501BEF00F01FAA846303054C63F70D
:1013A000AB049307F002630DF50C630B450D63E886
:1013B000AA00AA853245EF40C0516313054A93073E
:1013C000F00F630FFC48B3273C2186A3050C6DBFCB
:1013D0000509B5BF930700F8A305F4042285EFF0D3
:1013E0007F90AA84268505616FE09FDF9147B32631
:1013F0003C2163150C0A33263C21231006006301AF
:101400000C46014713050002B32637218E223A8B82
:101410000507E38BA5FE938525FD3337600193B562
:1014200015004D8F3307E0400D8BB3EDE700328799
:101430001306E0028355E7FF6386C5007D1C79171C
:10144000E31A0CFE930704042D46930500023E8523
:101450003EC4214AEFE05FDB014D814C33263B2146
:101460000622ADC093070002050B6387F4001386C4
:1014700024FD21E2630F8B0393ED3D00C5B7050901
:1014800083070900138717FD7DDB138747FA65DBA8
:1014900093F7F70F93B707028A0791BF03D7E6FFC9
:1014A000130607FE01C6130727FD31F7F9167D1C49
:1014B00089B763744D0163118B0BAD476313FA0851
:1014C00093ED3D00034604049306500E6315D600C9
:1014D00095462300D404A1466313DA008A0C13F75F
:1014E000CC00B1466307D70013F73C008D46631963
:1014F000D71093ED2D00A305B405228583290400A0
:10150000EFF04FFEAA84E31F05EC83C609001147E4
:101510006395E61C83AAC900014A03D50A0063113A
:1015200005102285F936AA8A63030512AA84114799
:10153000E39AE4EA93F74D009144E39507EA954472
:1015400055B563068B0193ED3D00E36D6CF78A0C96
:10155000628B2D4A214D19B79305F007EE8A63F58A
:1015600095029305501B2685EF00700393750508BF
:1015700093EA2D00AA848DC5A1679374F50793871C
:101580008794BE94842081C81965A6851305855A61
:10159000EF40203421C193EA3A009304F00525A0DE
:1015A0009305F00FE3F1A5FE9305FAFF6366BD0016
:1015B00093ED3D00528D5DB5B307A40193558500B1
:1015C0002380B704050DB307A40123809704050DFC
:1015D000D68D69B59387F4FBB3C70708E54563E586
:1015E000F50093EC2C00C5B79387F4F9B3C707084F
:1015F000E3EBF5FC811493EC1C00B3C40408E1B7E1
:1016000013F72D00E31907EE13F71C00120793FCE4
:101610004C00B3EDED00E3800CEE93ED8D00E1BDE9
:10162000EF00E07813571A003E0AB34605085297B8
:101630001375F50F2A97334A0708135A1A003E0705
:101640003A9AA182369A890A334A0A08F9B583A6DA
:10165000090303C7560203C646022207518FE3124D
:1016600047ED03CD3602930C00046388AA0313F7F9
:10167000FC0111E3890C03A70903669708231833BB
:101680002207598DEF00A07203A7C9002A8C33A747
:10169000EA200A23292F630FAC0213F7FA0FE31293
:1016A000EDE803A7C90033A7EA201A23E31B07E6E6
:1016B00093F74D00E39807D27C20C18BE38107E8C4
:1016C0009247882391476312F518A2852285EFF08F
:1016D0008FA05DB1890C850A49BFFD5A130AF00F2E
:1016E00023265405D28C130B500E0C5C4E85EFF064
:1016F0008FAEAA85631805160328C4038346080025
:10170000E38A06E20346B8001375F60368A063880F
:101710006601218A630A060EBD476305F50023268C
:101720005405E9A80346B404137606045DEA13F6EB
:1017300006045DCE93FCF60B145874C4034AD8001B
:101740008346B8010346A801A206D18EC5EA8346A6
:101750000800354E03ACC90093F6F603FD16338D31
:10176000C603A168416305459388889C7D13930E49
:10177000F00F3386150110224296034F06001032F7
:1017800022063366E60135CD63EAAE07328542CCE8
:101790002ECE32CA292D2AC833258D210A21012DAA
:1017A000C24721679308879C41676248F245930EC0
:1017B000F00F354E1303F7FF6392A7045245050D52
:1017C0008505E398C5FB034608001356664811C615
:1017D00009C5B3268D21962295E21387FCFF937CE1
:1017E000F70F2285EFF00FC7E30105F0AA8481B35C
:1017F000639696018346D800E38446F5930CF00F78
:10180000CDB7E30F66FADDBF63940C029305B80011
:10181000428693D61C0013977C00050636978346B4
:10182000F6FF3697937CF70FE315B6FEE3029AE9CD
:101830000347B404058BE31407EEA2452D46428509
:10184000EF40E006E31D05ECA5B5924793854703FD
:101850001C5893F7F71FBE95EFF0BF8708C429BE49
:10186000994449B6AA84BDBEEFE2DF9601112AC6AB
:1018700068082EC432C22ECEEFF00F8AFD576309DE
:10188000F50203A70183124609C723A8018223009A
:101890000700324709C72310070023A8E18201454A
:1018A00009C66C002800EFF0AFCC05616FE01F9512
:1018B0002D45E5BFEFE25F9059712EC6A54425C5C1
:1018C0002A846C086800B289EFF08FCAAA8435EDCB
:1018D0007249B2450810232024014AD0EFF05FA6D8
:1018E000AA8425E58307B10663C007068347610222
:1018F0001147C18BB1EF0345090093F91900631833
:10190000E5020C102285EFE01FFD835769000148B6
:10191000230834035EA08147A308040223220404A1
:101920001CDC232E0403268565616FE07F8CF64561
:10193000EFF02FFAF64508C41385C501EFE0DFF399
:1019400008C8232A0400D1B7994423200400E1BF2A
:10195000BA84E5BFEFE25F8501112E8923A006005E
:101960006C082A84B284B689EFE0DFFE254C35E5A9
:10197000034C140363130C06834704031D4C858B2F
:10198000A9CF18481C5C5448505CB307F740333764
:10199000F700918E6394E600B3D4F40A268C130A00
:1019A0000020854A7D5B630A0C021C5C505CF24B94
:1019B00013F7F71F45E383D4AB009316760113D7D3
:1019C0009700FD143697F98C9DE4D18F99EB08446C
:1019D00063EEAA00094CA3088403628505616FE0E9
:1019E0007F802C402285EFF02F92DDB763146501D4
:1019F000054CD5B728C02C405E85EFE01FEC79D9A7
:101A000093569C003386A400A9C683D7AB003387C6
:101A1000D40063F4E700B386974003C51B00CA8572
:101A200036C6EFE07FE269F5B2469394960083A74D
:101A30000900585C330C9C40A69723A0F9001C5C5D
:101A4000269933869700B337F600BA9710DC5CDC32
:101A500099BF70C06C405E85045CEFE0DFF749F928
:101A60000C5C13F6F41F3306CA40B354860B938BF9
:101A70004B0393F5F51F2686DE954A85EFE0CFF9F7
:101A80007DB7EFE22FF541116C002A84EFE09FEC67
:101A900019E12320040041016FE04FF6EFE28FF3DC
:101AA00001112EC635C12A846C086800EFF04FACD6
:101AB0000DEDF244B245228504C0EFF07F8821E1AC
:101AC0008307B40463CD07007C20C18B85CF8820B9
:101AD00091476311F502A2852285EFE0DFDFFE204A
:101AE00022855EA0EFF00FA019C12320040005613C
:101AF0006FE0CFF04C5CEFF0CFDD08C4CDB791477D
:101B0000E315F5FE1545D5B72545D5B7EFE28FECC2
:101B100041116C002A84EFE0FFE319E12320040067
:101B200041016FE0AFEDEFE22FE841112E846C0030
:101B30002A89EFE03FE26315052419E44A85EFF0B6
:101B40006F9A41016FE00FEA230D04004A85EFF020
:101B50004FDA9377B5FF63980722032A0900230D14
:101B6000040083278903E9C303470A0091476315EB
:101B7000F70C0D6B814A8144014593090004930BD6
:101B8000F025130CF00F130B0B80930CF07F91A03A
:101B900063E93B0513F7F90111E38909CE9798230F
:101BA0009C33A207D98F19E53387670133470708AC
:101BB00063FEEC009385A401420533069C40A29588
:101BC0005D8DEFE01FDD11CDAA9481478909850A5B
:101BD0003E8583270A0303C73702E3EBEAFA11E1E4
:101BE00089E49307F0033CAC8544A294238D040060
:101BF000A306040083240A0301458145DC2013F772
:101C0000770358A4C18B89E713858403EFE03FC8AD
:101C100008C04CC0DC34D824A207D98F3EA4F824D5
:101C2000FC34A207D98F1EA44A85EFF0AF829147FA
:101C3000631EF514014531B70327C904FD5763142A
:101C4000F70C8324C903814701479305000215451A
:101C50002D460507B386E40083C6F6FF638AB60205
:101C60006394A6009306500E130877FF631D0800C7
:101C700013B8C700630908003308F4009308E002B2
:101C8000A306180185073308F400A306D8008507CA
:101C9000E311C7FC3307F400A30607000307A40100
:101CA00049EBADCF9307D40021469305E00265458B
:101CB0000387070055E3818FCD17ADA099E43387E3
:101CC000670133470708637FEC009385A9011395EB
:101CD000040133863B41A2955D8DEFE09FCB19C98E
:101CE000AA998147890ABE848327CA00D6979E2372
:101CF000F1F74E8593B41400B3049040658D22959E
:101D0000230D05003DBF0D6B814A81498144930B32
:101D1000F00F130B0B80130CF07FF9B79307F00350
:101D20003CAC8547A297238D0700DC2499E3A306EA
:101D30000400BC341385C40193F7F7035CA4EFE0FF
:101D4000BFB308C023220400FC38F828A207D98FAB
:101D50003EA4982C9C3CF1B5334707086300B702BA
:101D60009306F7FBB3C606086367D500D424F18E4B
:101D700099C213070702D8B785071DBF4146E5BFC3
:101D80002545E30004DC230D040065BBE30B05DA05
:101D9000DDBF9307F00763F3A70001458280930737
:101DA000F00763F3A7000145334505088280130758
:101DB000F5F9E54763E3E70001158280EFE2CFBF65
:101DC0002A8B0144294A9384012A03C5C183FD4615
:101DD0005A869385A183EFE0BF9FAA8A0DC9B36796
:101DE00044032547639DE70083C5C18303C53402CF
:101DF000EFE09F980945239D0182EF20701A054569
:101E0000EF20101A050493078002E310F4FC5685B6
:101E10006FE00FBEEFE24FB9AA8B2E8CB28C01445B
:101E2000294AA54A9384012A03C58183E2865E86F6
:101E300093856183EFE0BF952A8B05C9B36744039F
:101E4000639F570183C5818303C5340293E5050869
:101E5000EFE09F920945239B0182EF207014054516
:101E60000504EF20F013E31194FD5A856FE08FB75E
:101E7000EFE28FB44111B5472A8B7C870144294A90
:101E80009384012A03C581839306E1005A869385D2
:101E90006183EFE0DF8FAA8A1DC9B367440325473A
:101EA000639FE70083C5818303C5340293E505087A
:101EB000EFE09F8C0945239B0182EF20700E0545C2
:101EC000EF20100E05049307C003E31DF4FA5685B6
:101ED00041016FE0EFB1EFE2EFAF1D7113040002BB
:101EE000AA842E89494681451305D1026087EFE017
:101EF000AFB1B7574243938757353ED0B73722111A
:101F0000938767363ED2930700F82306F102E977FC
:101F1000938707E12317F10233058100C14722D4DB
:101F20002308F102230E8102513D39E90545EF20D6
:101F30003007130680029305E1008800E13DAA877F
:101F4000094585EF3887AD4763F9E7020545EF207E
:101F500030050808313F8347C1015D8D1375F50FCA
:101F600015E10647FD5701E7964793D787699CC05F
:101F7000A64793D787692320F90025616FE00FA852
:101F80000545E5BF0D45D5BFEFE2CFA45D71AA843D
:101F90002E89494681451305D103EFE0EFA6B757D7
:101FA0004243938757353ED8B7372211938747343A
:101FB0003EDA930700F8230EF102896721449387E4
:101FC000A750081822DC231FF102CD3B01CDAA85C2
:101FD00019651305055BEF30406C85452E85616101
:101FE0006FE0CFA10945EF20A07B13068002930587
:101FF00061012808E083393DB083AA8501C91965CC
:102000001305455DEF3060698945C9BF63098600E6
:102010001965B28513054560EF302068F5B70945AD
:10202000EF2000780810A935AA8501C919651305A4
:102030004563EF3080668D4555B78345C10289C938
:1020400082562256196513058565EF300065E5B7A0
:1020500005452EC6EF20C074E247B24593D7876985
:102060009CC0F24793D787692320F90085BFEFE230
:102070006F9683C651834167130717F223A0E18847
:1020800093870188D6A3239307009384012A03C56D
:10209000340201468145EFE08FC8054415E983C548
:1020A000818383C434022A8493E505082685EFE002
:1020B000AFEC0945EF20C06E83C5C1832685EFE0F4
:1020C000AFEB239B01825145239D0182EF20406DA0
:1020D00022856FE0AF92EFE2EF8F0545EFE0CF9BF7
:1020E0007D4681451385F12BEFE00F921306A0107A
:1020F00081451385E129EFE02F916FE02F90EFE20A
:10210000AF8AFD47B307F5029389012A41112A8A54
:102110008544130B4006A14A1949138737009107DC
:10212000B38C3701330C3701138D012C1305400696
:10213000EF20006733959A00EF208066EFE06FA1F3
:102140000144814B6285EFE06FA419E5850B93FB99
:10215000FB0F636779110144050405453344040806
:10216000EF200064E31064FF63942401594539A013
:1021700085046DBFE39E24FF1305500441016FE009
:102180006F861545EF20C06103C54B009306E10043
:102190001306F00F9385412DEFE0AFD311C5E399FE
:1021A00024FD13057004D9BF1384412D4C3003C5A1
:1021B0004B00EFE0EFDAAA8611C5E39B24FB130581
:1021C000B00F6DBF0358E100239B01822298238C3E
:1021D0000182238E0182239D018281450145A287D0
:1021E000114E954E094F63EE07011345150093C735
:1021F00016005D8D93C515004D8D1375F50F3DDDF2
:102200007DBF98336318C703D833F023611769166D
:102210001337170013361600718F09CBF8331307E5
:1022200007FB09E7B423A38AD1828546982355DFAB
:10223000BA9755BFE31CD7FFF5DAB8330D8BE31619
:10224000E7FFB8231376F7001317476063560700BC
:10225000238CC1823685D9BF238EC182B685F9B75A
:10226000EA856685EFE0EFC2E31605F0FD4BB30BA0
:102270007A038D45CE9B03C54B002381BB00EFE065
:10228000CFCAE30005F0E39524EF13056004FDB524
:10229000EFD25FF41384012A683CEFE06F850547B5
:1022A000AA876315E502783C8D44631597000145C4
:1022B0006FD0DFF468BC2302A402913519E164BC3D
:1022C000FDB789477CBC1305200FDDB71305F00F60
:1022D000E5F3034444027D4681451385F12BEFD09D
:1022E000BFF21306A0103304C402138541198145BF
:1022F0002295EFD07FF11305100F5DBFEFD29FED58
:10230000B717002003C4C7F17D4681451385F12B23
:10231000EFD09FEF1306A0103304C40213854119B8
:1023200081452295EFD05FEE6FD05FEDEFD29FEA4F
:1023300039712E846C87AA84494681451305D102E0
:10234000EFD09FECB7574243938757353ED0B757EE
:102350004553938737E53ED2930700F82306F102F1
:1023600008109307603022D42317F102A3098102D9
:10237000EFF0DFA405ED0545EF2080421306800253
:102380009305E1002685EFF0FFA8AA87094585E3BC
:102390000545EF20E0400808EFF09FAD8347C101FD
:1023A0005D8D1375F50F01C50D4511A00545216122
:1023B0006FD0DFE4EFD21FE20111AA842E89154409
:1023C000CA852685EFF05FBC15C5C945680002C601
:1023D00002C802CA02CC231E0100893F1305200354
:1023E0007D14EF20E03B69FCCA852685EFF0BFAE87
:1023F00011C10D4505616FD07FE0EFD27FDA5D71CD
:10240000375D424337C9FECA8D69AA842EC6328A17
:10241000094B130D5D351309E9AB9389A980854AF2
:10242000494681451305D103EFD01FDE930700F81D
:10243000230EF10293D78401A300F10493D7040182
:102440002301F10493D784006AD84ADA52DC231FAF
:102450003103A301F10423029104A3035105514C5C
:102460000818EFF0BF952A8459C905457D1CEF2057
:102470002033E3170CFEC945081802D802DA02DC43
:1024800002DE231001045D35EFF07FBE1545EF201D
:10249000203163145B010D4481A8054B51B7B3078C
:1024A000BA41B3C70708B3D7870BFC87B247D14BF4
:1024B000EE973EC21246A24503C581839306E10111
:1024C000EFE0EFAC15E5BC87DDD7BE9DE3E94DFD40
:1024D000930C80020810EFF0BF998347C1022A8C49
:1024E000C98F93F7F70F9DE3228561616FD05FCFAE
:1024F0000545FD1BEF20C02AE39E0BFAADBF938775
:102500006183814D130C00203EC4C9B70545FD1CF5
:10251000EF200029E3900CFC8347C102336CFC00E0
:10252000137CFC0FE3190CF4C1B7EFD2FFC7196598
:1025300039711305456CEF3040221384012A6C3C3D
:102540000347240283463402034614021965130527
:10255000856EEF308014EFF07FDA19651305C572D0
:10256000EF30A01F683CEFD0BFD82A84AA85196538
:102570001305C575EF30601219E419651305C57AA6
:10258000EF30A01D51A0FD571305E101230FF1000D
:10259000EFD0DFDF0346E101AA852AC619651305DE
:1025A000C57EEF30800FB245B9E98347E1010947A5
:1025B0006363F70421671307879DB3C7E7208C4344
:1025C0001D6513050582EF30400D9385012C130521
:1025D000F101A30F0100EFE0CF8B0346F101AA84C4
:1025E000AA851D6513058582EF30200B8DC01D6502
:1025F0001305C58971B7996593858568D1B71D6540
:1026000013050586EF30600921616FD0BFBD1D65E0
:102610001305458F1384012CEF3020140C201D6509
:102620001305C590EF3060070C301D6513058592CA
:10263000EF30A00636209D649D653686938585948F
:1026400013850495EF3060054C201D651305C59674
:10265000EF30A0044C301D651305C598EF30E00342
:102660006C201D651305C59AEF3020036C301D6585
:102670001305C59CEF30600216249D659385859EE9
:10268000368613850495EF30400136249D65938589
:10269000459F368613850495EF30200056249D65AE
:1026A000938505A0368613850495EF20107F6C2452
:1026B0001D651305C5A0EF20507E6C341D65130504
:1026C00085A2EF20907D0C281D65130545A4EF2001
:1026D000D07C0C381D65130505A6EF20107C322434
:1026E0000E241D65130505A8EF20307B0345F1017D
:1026F0008D45EFE08F832A842A861D658D4513055D
:10270000C5A9EF20907909C41D65130585AC8DBD61
:102710001545EF20E0080345F1011306F00F9385FE
:10272000412D141023100102EFD0BFFA035601020D
:10273000AA84AA851D65130505B0EF20107691E4E3
:10274000035601028D4763E6C7001D651305C5B337
:1027500005BD1384412D4C301D65130545B62EC6AD
:10276000EF20B073B2450345F101EFD07FFFB245D2
:10277000AA842A861D651305C5B9EF20107289C485
:102780001D651305C5BCEDBB035A01029D67138C83
:1027900047C39D67229A81490149914A196B938CDD
:1027A00007BF636244031D65CE864A86A68513056E
:1027B00045C6EF20906E63840900631A09081D6501
:1027C000130505CA75BB1C3063905703783074201D
:1027D00050302C208504668593F4F40FEF20F06BC5
:1027E0001C20F1D33E9475BF1547E39BE7FE5430A0
:1027F000834B34005C20A20693FB3B002C20DD8E33
:1028000013064B69638B0B0085476387FB0289477F
:102810006398FB0219661306466A62852EC6EF208E
:10282000D0678947B245E39DFBFA9397456063CD36
:10283000070093F9F5006DB719661306C668F1BF76
:1028400019661306C669D1BF13F9F50051BFEFF041
:102850001F82AA851D65130585CDEF2010641D65B7
:102860001305C5D09D641D699D69EF20106F054457
:1028700002D202D4938484D3130949DB938909E5F6
:10288000A2852685EF2070612C104810EFF0CFEF65
:102890002A8611ED9255A2561D6513861500130563
:1028A00005D5EF20905F1D65130545D8D1B9A285E8
:1028B0004A85EF20905EC947514693052102681072
:1028C00002D602D802DA02DC231E01022311F10231
:1028D000EFF04FD403562102AA8545E18D4763FEF0
:1028E000C7081377F60F63E3E7041D65BA85130580
:1028F000C5DDEF20905A13054006EF10706A0504FD
:102900009147E31FF4F61D65130585E8EF20F06499
:102910002C104810EFF02FDCAA8525E522569255A1
:102920001D65130545EBEF205057F9B90346E10249
:102930008345C102034781033D8A8347910393F591
:10294000F50705C69306F6FF93F6F60F3145636269
:10295000D50221651305459EB3C6A62094421D6588
:10296000130585E0EF20705379B799669386C66AA0
:10297000FDB799669386866BDDB74E85EF20F051E3
:102980009DBF1D651305C5EDEF2030511D65130575
:1029900005F0FDB6EFD25F8295441309100F93093D
:1029A000D00FEFF0FF8E2A846316250383C741837F
:1029B00099CF9D6501469385C5FB0145EFE0DFEAB0
:1029C0001D65130505FC238A0182EF20105922851D
:1029D0006FD01F821304F5FF1374F40F63EF8904A3
:1029E00013054006FD14EF10B05BC5FC1304200F67
:1029F000F9BF63082503630A3503B147631BF5027A
:102A00001D66130606FA5A857D14EF20104979DCFD
:102A10001305800CEF10D058EFF05F8EEFF05F875A
:102A20001DA81D66130686F6F9BF1D66130646F33C
:102A3000D9BF1D66130606F9F9B783C741839DEB1D
:102A40009D67138AC7FB0D44938A01F69D6722890F
:102A5000AD49138BC7FFD28505465685EFE0DFE011
:102A6000AA8541F91D658547130585FE238AF182F4
:102A7000EF20B04E0144A1BFEFD20FF31D713DC650
:102A8000AA842E8C3289EFF0FFF02DE10546A68551
:102A90002808EFE03FE22A8439E193090020938B74
:102AA00001D6054A931AB0280D4BB3048940B3D41C
:102AB000340B8A862686DE852808EFE0BFE901ED23
:102AC000824791CB13F737001DC71D65A2851305FB
:102AD000C503EF20903C2808EFE0BFFA09A82A863A
:102AE0001D65A6851305C501EF20303B01442285F5
:102AF00025616FD02FEF114789833306E100B305BD
:102B00008C005E853AC83ECA52C256C45AC6EF10FF
:102B1000F0000545EF101003374702401307074048
:102B20001C57898BF5DF0945EF1050030145EF1065
:102B3000700182473E94E3E097FAE36824F761BFAF
:102B4000EFD28FE749712A842E8AEFF0BFE409C9DA
:102B50001D6513050507EF20504075616FD04FE9E3
:102B6000A2850A85EFE09FF32A86A28519C51D6517
:102B70001305450AEF207032CDB71D651305850C8E
:102B8000EF20B0319D6701449D641D699389470D15
:102B9000630744018C080A85EFE0FFF809C50A8540
:102BA000EFE0DFF65DBF8307A106F5DB8347C105D4
:102BB0009385C406C18B99C393058906464693063F
:102BC000A1064E850504EF20502D33440408C9B7F3
:102BD00037050080828037058000828003A501844C
:102BE0008280A94663EAA61AEFD2CFDE41110DE931
:102BF0001385413D130600048145EFD0EFE023A08B
:102C00000184A1679387876337E700E0D94693E79C
:102C100017002308D7043CD3014541016FD00FDED4
:102C20002AC6EF009070630705161385413D130611
:102C300000048145EFD04FDDB247A94623A0F184BF
:102C40002A8763E5F614A166938686A1B3C6D720CA
:102C500094428286A16637E600E093868672D94563
:102C600093E616002308B60434D2F1179946E3E53B
:102C7000F6FAA166938646A4B3C7D7209C43828701
:102C8000577001CDD7A00852F977D7E01796717623
:102C9000E1769307850057411602D7C01602130745
:102CA000050127E10702A7600702EF005071ADB7E9
:102CB000A1679387C75C89BFA16793870756A9B7A8
:102CC000A167B7E600E093870740594693E71700EE
:102CD0002388C604BCD2F176E17714C31CD32DBF80
:102CE000A167B7E600E093874730594693E717009E
:102CF0002388C604BCD2577001CDD7A00852F977FB
:102D0000D7E017967176E176930787005741160250
:102D1000D7C0160227610702A7E00702F5BD57706A
:102D200001CDD7A00852F977D7E017967176E176F2
:102D3000D94557411602D7C01602B7E600E02388EE
:102D4000B604130685001307050127610602A76074
:102D50000702A1679387672293E71700BCD26DBD76
:102D6000577001CDD7A00852F977D7E01796717642
:102D7000E1769307850057411602D7C01602130764
:102D8000050127E10702A760070279B5A1679387CC
:102D9000474F9DBD7D5551B57D558280EFD28FC384
:102DA000577001CDD7A00852B547D7E0179641110B
:102DB000AA8437250140D7B011023C0041444C00A1
:102DC00013050580A7E0070222C2EF100036372561
:102DD0000140A28513050580EF1080403725014092
:102DE000A28513050580EF10E03F2685EF10501BEC
:102DF00037250140A28513050580EF10603E372579
:102E000001404C009147130505803EC6EF10E031AC
:102E100041016FD0AFBE01A0F325203473261034DA
:102E2000F326303406871D651305851FEF20F00655
:102E300073005010F5BFED207300203003870500AC
:102E40008307050005E3054585C7DD1793F7F70FF1
:102E50005D470145636EF700370580004D0533552A
:102E6000F54882806315F70005058505C1BF01455A
:102E700082801C4103870700930607FEA5C29306C4
:102E800077FFA9CE93060003631BD70003871700C3
:102E9000930680051377F7FD6313D700890703882E
:102EA000070035479376F80F637CD70201488146C7
:102EB000254E154303870700930807FD93F8F80F85
:102EC000636A1E03130707FD92060508D98E85075E
:102ED000E312C8FE94C11CC1014719A8850759BF58
:102EE000896693861640B3D806497D57E38008FC6F
:102EF0003A8582809308F7F993F8F80F6365130118
:102F0000130797FAD1B79308F7FB93F8F80F6365A7
:102F10001301130797FC4DBF7D57E31D08FAC9BF86
:102F2000EFD24FAB37450140930550521305058052
:102F3000EF10407C21C53745014013050580EF1097
:102F4000407A83C70185AA841374F50FADC383A6A5
:102F5000C1841386160023A6C184B7070080B697E4
:102F600080A383A78184FD1723A4F18481EB1D65D1
:102F70001305452323880184EF20207E3745014037
:102F80009305003613050580EF10C07619CD37453F
:102F9000014013050580EF10C074374501409305CB
:102FA000003613050580EF1000796FD02FA5B547C7
:102FB0006310F40837450140A28513050580EF1022
:102FC000C071374501409305000813050580EF10D7
:102FD000C07165D937450140A94513050580EF103B
:102FE000C06F374501409305000813050580EF10B9
:102FF000C06F65D983D5218513874147B307B700D3
:10300000238007009386414181473308F700034836
:1030100008003385F600850723000501B3C70708BC
:10302000E3F5F5FE0547239901842382E184B9B7CE
:10303000A9476301F4049375F50F37450140130563
:103040000580EF108069374501409305000813059E
:103050000580EF10806965D9930684FF83D72185A9
:1030600081C6130414F801ECE38A07F0FD172399D5
:10307000F18429B783C74184E39207F0A5BF930683
:10308000E005E3EDF6EE938617002399D1841387CC
:103090004147BA9784A3DDB503C74184630D075C3C
:1030A000EFD28F911D7113844141238201848307E4
:1030B0000400138707FE05CF138777FF0DCB13F7A7
:1030C000F70FB54663E8E600096713071740B356E4
:1030D000F748A1E69D65938505242285EFF01FD66C
:1030E00009C91D6513058524EF2020673DA005044F
:1030F0007DBF9D659385C5242285EFF03FD415C51E
:10310000B7270140938707808C4790431D6593D56F
:10311000454813050525EF20405821651305058E08
:10312000EF20A05725616FD0AF8C9D6593858526D4
:103130002285EFF0BFD049C11D6513050527EF209B
:10314000C0611D651305C527EF2020611D651305AE
:10315000C52AEF2080601D651305452FEF20E05F35
:103160001D651305C533EF20405F1D651305453808
:10317000EF20A05E1D651305453DEF20005E1D6537
:1031800013058541EF20605D1D651305C545EF20E2
:10319000C05C1D651305C549EF20205C1D65130546
:1031A000054EEF20805B1D6513058552EF20E05A28
:1031B0001D651305C5560DBF9D659385855B2285ED
:1031C000EFF0DFC74DCD93043400838704001387ED
:1031D00007FE25C3138777FF29CF216413F7F70F65
:1031E000B546130404A663E8E60009671307174011
:1031F000B356F74881EA9965938585682685EFF08F
:10320000FFC315C9EFF09F9D334585200C412EC6A5
:10321000EFF01F9C2AC4EFF01F9C2246B245AA86FD
:103220001D651305C55BEF2040471D651305455E11
:1032300065BD850459BFA28901492D4A83A50900AE
:103240002685EFF0BFBF09C94A85EFF09F9911C9E4
:103250001D651305456549BD05099109E31049FF41
:10326000C5BFEFF0BF97334585200C412EC4EFF06A
:103270003F962A861D65A2451305C56369BD9D65F8
:10328000938545682285EFF07FBB35C5EFF08FF061
:10329000AA8505EDB717002083C7A7F10947636228
:1032A000F70221671307C7A8B3C7E7208C4383C67B
:1032B000C18303C681831D6513058568EF20E03D4A
:1032C000A9BD996593858568DDB79307100F6316CF
:1032D000F5001D651305C56A01BD9307200F631630
:1032E000F5001D651305056C01B51D651305C57059
:1032F000EF20A03A1DB59D659385C5712285EFF03D
:10330000FFB301C5EFF06FA209BD9D6593854572BE
:103310002285EFF0BFB21DCD130524008307050001
:10332000138707FE15C7138777FF1DC313F7F70F22
:10333000B54663EBE600096713071740B356F74835
:1033400081C61D651305C523C145EFF06FFFF1B3BD
:103350000505E9B79D65938585722285EFF01FAE5F
:1033600071CD0D0422CA03070400A2870504930649
:1033700007FEEDDA5D177DD73706800081465D4593
:103380004D069305F003130801020387070019CBCC
:103390005D171377F70F6365E5003357E64819E3C8
:1033A000639BB602138706051408BA96238006FCB1
:1033B00003870700930677FF8DCA01171DC72146B3
:1033C0002C08480802CC02CEEFF0BFAA15C11D653B
:1033D0001305C57211BB85073ECA8388F7FF330703
:1033E000D8008506230017014DB785073ECAC9B727
:1033F00021466C084808EFF0DFA771F9724609E62C
:103400001D6513050576CDB1E2473707800063F6E9
:10341000E700B306F6006376D7001D6513058576D1
:10342000E1B1B7050080BE950810EFF0EFE4AA8582
:10343000631305101D65130505797DB19D659385A1
:10344000057B2285EFF09F9F05C1DD252AC4EFF0A3
:10345000EFF8A167938707A63345F52010411D6556
:10346000A2451305457B45B99D659385C57C22859D
:10347000EFF0DF9C25C90D0483070400138777FF55
:103480001DC3138707FE05C3938707FD93F7F70F47
:10349000A54663F6F6049307400689659385057192
:1034A000B3D5B70A25A00504C1BFB387B702050489
:1034B000938707FDB29703060400130706FD1377F1
:1034C000F70FE3F4E6FE93054006E1FB2E852EC4DC
:1034D000EFF0DF8C1D65A2451305057D11BD814709
:1034E000A945D1BF9D659385C57D2285EFF01F95C8
:1034F00025CD110421466C08280822CC02CEEFF01D
:103500005F9709C51D651305457EF9BEEFF0AFEC69
:10351000F9742A8A014435499384E4BFB7090080CD
:10352000E2478387070013F7F70F636AE90033D791
:10353000F44811E7A2851D651305857A55BB094638
:103540000C10280802D0EFF0DF9211C51D65A2858E
:103550001305C57F71BBF247A297E3FD47FD0257F4
:10356000CE97050498A36DBFA1659385058222853A
:10357000EFF0DF8C2DC1150421466C08280822CC01
:1035800002CE02D0EFF0FF8E09C5216513058582BA
:10359000A1BE21460C102808EFF0BF8D7DF5EFF09D
:1035A0008FE38257AA856369F50072476376A700A7
:1035B000B386E7006376D5002165130505850DBB4D
:1035C00005462388C18423A6E184216523A4F184D0
:1035D0001305058811BEA165938585882285EFF0C6
:1035E000FF8551C5110421466C08280822CC02CE63
:1035F00002D0EFF01F8809C5216513050589EDB4D8
:1036000021460C102808EFF0DF867DF5EFF0AFDCE7
:10361000F24563E5A5009305F5FF2ECE025693070C
:10362000001063F4C7003ED03E86B387C5006375C3
:10363000F5003306B54032D021651305458BA164F2
:10364000EF20A0050144370900809384048C825741
:103650006366F4001D65130505DB79B4F247268522
:10366000A297CA978C230504EF202003CDB72165CC
:103670001305858C95BC8280B70800089307450325
:103680009305451B8146FD18154303A7470B90433F
:10369000329723AAE70A13164700635C06023377C2
:1036A00017010328C5181386071023AAE70A5842F2
:1036B000032EC6067D073377C70158C203270519B5
:1036C0003316D0283347E800718F3347070123268C
:1036D000E5180327C5183356D74815CE03A7470B5F
:1036E00003A64710039E0500598332977D8B23AEB6
:1036F000E70C50513358D648631F08001398560002
:103700002A98429703A6070F030787043307E602A8
:10371000419B72979AA1039705008506910705873B
:103720009AA18905E39366F68280EFC2FFA82A84F6
:103730005C44084144408DC3B70780001CC4058128
:10374000B7070080B3D4970223260402B3D7A70299
:1037500004D41CD86FC0DFA9EF10F05903A6018173
:1037600083A64181EF1050112A892685AE89EF107A
:1037700090582A86AE864A85CE85EF102042EF10FB
:10378000B05108C4C1BF4CC56FF03FFA41C1EFC290
:103790007FA42A84A5671CD1232C0500232E0500B5
:1037A0009307840E1305850423000500A30005007C
:1037B00023010500A30105002302050013050502EE
:1037C000E314F5FE130640068145EFC0FFA37946DA
:1037D00081451305041AEFC03FA313060004814579
:1037E0001305C414EFC05FA29307F00F2322040255
:1037F0002326F4182328F418232A0418232C041849
:10380000232E0418231804006FC05F9F8280EFC22C
:103810007F9C5C452A8485EFEFF01FE68357641B8D
:103820000355441B3E958357841B3E958357A41B29
:103830003E958357C41B3E95131555600AA86FC06B
:10384000FF9B18582285BA975CD4EFF0FFE218541A
:103850005C54E3E8E7FE998F5CD4C9B793F7F50FA2
:103860001307F009636AF702958333C7A72003277C
:10387000071A6317071213975700FD892A972E9787
:103880002304C704184D631D0710F517639A07102A
:10389000AA952384C50C8280138707F4A54663E5A7
:1038A000E60686072A97F18B2306C714AA97856632
:1038B000858903A7C70F938606F085CD2206F18E72
:1038C0001376F70F558E23AEC70E0327C51919C3FC
:1038D00023A4070E0327851919C31376F60F0327B0
:1038E000451911C321822147636AC70023AA070231
:1038F0008280758F1376F60F598EF1B7184505063D
:103900003357C702D8DB8280938607F31148636C74
:10391000D8002A97BD892306C714B3C5A5203D8AC0
:1039200023A2C51282801307000E6397E7002306C7
:10393000C516058A10CD82801307100E6398E70024
:10394000A306C5167D8A2328C51882801307200E7A
:103950006398E70493576648FD17859BFD079375A9
:10396000160093762600137706022307C516232A2E
:10397000B518232CD518232EE5182320F51A232259
:10398000F51A2324F51A2326F51A1376060801E6FC
:103990002328F51A8280FD472328F51A2326F51AD5
:1039A0008280EFC23F832E871377070893F5F50FC8
:1039B00001E7EFF0BFEA0DA8130790086365B700B1
:1039C00093850504FDB71307E0086365B700938589
:1039D0006504C5B71307F008639AE5009377F6010D
:1039E000A306C5162328F5186FC05F819307F00D55
:1039F000E3FCB7FE9305200E6DBF58498546B2879C
:103A00002E881376F60F6312D702C166F916ED8E73
:103A1000B165F915639BB600220689677D8E131682
:103A2000C6281316F62810D1828014516369D80A6B
:103A3000B305D8406318D8029306F0036317D60085
:103A4000232C050085475CCD828093D7774891C7AA
:103A50007D1701E785471CCDFDB7232C0500232EDC
:103A600005008280544DA5CE9386058093B606103E
:103A7000BDC6EFC22FF62DC385466304D7006FC0C5
:103A8000EFF7184D31CB93F5F50F1307F009636588
:103A9000B700EFF0BFDCE5B71307900A6365B70026
:103AA00093850502FDB71307E00A6365B7009385A8
:103AB0006502C5B71307F00A6398E500A306F5167B
:103AC000FD8B2328F51865BF938505F4FD47E3E8D2
:103AD000B7FA9305200E75BFEFF0BFEC4DB78280AB
:103AE0004CC98280EFC20FEF0565EF00F007692E29
:103AF000EF00504537150E00EF00B04DB70700201E
:103B000083A5874521651305C58EEF101039612BFC
:103B1000AA8521651305C58FEF103038EFE0AFDBC4
:103B2000EFF08FD773005010E5BF03A54185828069
:103B300003A5018683A7C1851D8D1375F5038280BA
:103B400037150040411185451305058022C626C45E
:103B50004AC24EC0EF00302A15C9371500408545CE
:103B600013050580EF00702A9384414D03A7C1859A
:103B700083A7018603A541866311F702EFF03FC9D1
:103B8000A167A1073E95118123ACA1843244A244D0
:103B90001249824941017300203083A7C185B3C710
:103BA00097208C4383A7C18533C60508850793F703
:103BB000F703C18123AEF184EFF03FE445BFEFC2CC
:103BC0006FE103A541865D710DE51306001C81457B
:103BD0001385415DEFC04FE3374736001307D7D752
:103BE00018C12D67130747C458C1054758C923A2F8
:103BF000A186EFF0BFB903A541868145EFF0BFB8BC
:103C000003A5418681450544EFF09FED23A0018681
:103C10008545094523AE0184EF00300B37050020B0
:103C200085451105EF00300DB717014093870780D8
:103C30009843B706F1FFFD16758F98C31306C002AF
:103C40004C08014532CA02CC02CE02D0D12E8545A5
:103C50000145F52E854501450129814501452D2167
:103C60001306C00281454810EFC00FDA4810AD2995
:103C7000B7770040938707423ED2938781853ED431
:103C8000C1473ED6930700083EDC930700203EDE86
:103C90009317B028BEC03705024093070002BEC28A
:103CA0004C108D6713050543BEC422D802DA82C6C4
:103CB000012137050240A28513050543A929B7173D
:103CC0000240DC4303A7818693F70770B337F00007
:103CD000A297B387E70202C402C623180100D9C322
:103CE000156713072762D966BA97938676880947BE
:103CF00063FDF6004167B70644AC7D1763F7D70054
:103D00002D67130747C433D7E702371500407D17E7
:103D10002C00130505807886EF00B00037150040B1
:103D20009305000213050580EF00B00B3715004026
:103D3000854513050580EF007008054637150040DE
:103D4000B28513050580EF00B008B7E700E0130760
:103D500000FC2387E742116723A2E7100145616158
:103D60006FC0CFC9B7074B049387278251BFEFC2FB
:103D70006FC6371402401C4041113707FF8093E79C
:103D800017001CC05C40F98F5CC05C40B18BF5FF34
:103D90001C403707A7FE7D17F98F1CC01C40370752
:103DA000C1FF7D17939727491CC05C40F98F5CC009
:103DB0005C543727F103130707809397C7485CD4F7
:103DC0005C54F98F5CD45C409397D7295CC023285E
:103DD0000402B7078F001CC4012902C202C402C634
:103DE0001C403717024037060200939707291CC072
:103DF00099661C43F18F3EC4924785073EC2A24795
:103E000081E79247E397D7FE184385479316E7006B
:103E100063DA06063EC422476313F706B71702406B
:103E2000D8433706674513063612D8C3D843B7962A
:103E3000EFCD9386B69AD8C3D843D8C3372702406C
:103E400050C354C350D354D3144B36C6B246939682
:103E500096499396A64936C6B24636C6B24614CBA4
:103E6000144B93E606089396F62814CBD843914654
:103E700013671700D8C3D843318BE31ED7FE410127
:103E80006FC0CFB702C441BFB7150240D441D0556F
:103E9000B7877D01B18A11453707002093870784D2
:103EA000638BA606B73731012145938707D063940A
:103EB000A60683A84500D455C841B9677D8E4581C3
:103EC000A1679375F501938787A9AE979C23A1827B
:103ED0009D8A1388B5FF3943850693F7F70F81450F
:103EE000636403019375150011656300A606636A98
:103EF000C50039E6B7479C1C93870780232EF744FB
:103F000039A019656306A60431656308A6048327F2
:103F1000C745B3D7D702232EF7443717024054437F
:103F20002167130787AB9182BD8A36971823B3D7D1
:103F3000E70037070020232CF74423A4F186828072
:103F4000B767CD1D9387075055BFB7D712137DB7FD
:103F5000B737D913938707D455B71396F800634C36
:103F6000060037363101130606D0B387C702850530
:103F7000B3D7B70261B737867D0113060684F5B75C
:103F800001A097D1FF1F938161CD17E1012013019B
:103F90006107175500001305658697C5FF1F9385B8
:103FA000654617C6FF1F1306A64D63FAC500832298
:103FB000050023A0550011059105E3EAC5FE138510
:103FC000418297D5FF1F938525566377B50023203F
:103FD00005001105E36DB5FE9302001073B0528029
:103FE00093021002739002BC8542739012BC9D42F2
:103FF00073904280930280687390023097C2FFFFF3
:104000009382420093E2320073905230EFF03FD639
:1040100097020000938242AD7390123473002030F7
:10402000B7760040938606409C42056779173317A0
:10403000A700D04133F7E7409C41D18F9045D18F05
:10404000D045D18FB397A700D98F9CC28280B77714
:10405000004093870740984389C53317A72898C322
:1040600082803317A748E5BF85673395A700B777E8
:10407000004093870740984381C5498F98C3828049
:104080003375A74088C382804111B777004002C6CC
:10409000938707403EC6B247A107AA973EC6B247DC
:1040A0008CC341018280B7F7FF1F03A54770828050
:1040B0001841E177BD0794517D8F9C45D58F944978
:1040C000D58FD449D58F944DD58FD44DD58FD4511C
:1040D000D58F9455D58FD98F1CC1DC455CC19C41CF
:1040E0001CC5DC415CC5828023200500232205001D
:1040F000232405002326050023280500232A050084
:10410000232C0500232E050023200502232205026F
:104110002324050282801C4189C593E717001CC136
:10412000828041677917F98FDDBF9C4513F707013E
:1041300013F8F70001C7D8413368E80092211377DC
:10414000F60F1DCF144101473D4E930E8002130F11
:1041500080042143B355E648B318E02891CD931568
:104160002700B31FBE00B3F6F641B315B800CD8EDD
:10417000639ED705232A15010507E31D67FC14C1BB
:104180001307F00F6373C704584181463D4E930EE9
:104190008002130F8004214393858600B35FB648E5
:1041A000B318B028638F0F0093952600B31FBE008D
:1041B0003377F741B315B8004D8F639ED701232A9B
:1041C00015018506E39A66FC58C18280E396E7FBF9
:1041D0002328150155B7E396E7FF23281501D5B726
:1041E0000CC982804CC98280EFB2DFFE4111854547
:1041F0001305C00702C202C402C6DD24B7F7FF1FC1
:1042000083A747703707734693F7F7F06381E7108A
:10421000636FF7003707714605076385E70A3707BD
:10422000724609076386E70441016FB03FFD370717
:10423000744605076380E70C370775460907E39561
:10424000E7FE9147371501407C824C0093078002BE
:10425000130505C03EC6EFF05FED9307003C4C0030
:10426000371501407C82EFF05FEC9167ED1705A8F0
:104270009147371501407C824C009307800213055B
:1042800005C03EC6EFF07FEA9307003C4C003715AF
:1042900001407C82EFF07FE991679387B7EF371594
:1042A00001404C00130505407C82EFF01FE8896750
:1042B000FD177C82372501404C0013050580EFF087
:1042C000DFE69DB79307003C7C824C009307800299
:1042D000371501403EC6EFF05FE59307B0EF3715A5
:1042E00001404C00130505407C82EFF01FE493076A
:1042F000C00FC1B79307003C7C824C00930780023B
:10430000371501403EC6EFF05FE2ED57C9BF930796
:1043100000087C82930780023EC669BF374702408F
:104320001307074008D34CD31C4A5CCF1C421446E9
:104330009207C206D58F5442D58F5446D206D58FE8
:104340001CCF8280B747024093870740984F09C52A
:104350001367170098CF8280799BEDBFB747024063
:104360009387074088D78280B747024093870780AA
:1043700098431317C74898C39843498F98C38280BE
:10438000B7160240D042D856B7877D01318A914591
:1043900093870784630AB606B7373101A14593872F
:1043A00007D06313B606B96783A846007D8FDC5635
:1043B000D0423943A1839D8B138817004582A167A2
:1043C0009376F601938787ACB6979C239385B6FFC7
:1043D000814693F7F70F6364B30093761600116676
:1043E000630AC70A6369E6004DE3B7479C1C9387DD
:1043F00007801CC139A019666301C70A31666303CF
:10440000C70A1C41B3D707031CC1371602405442E8
:104410002167130787AE9182BD8A36971823B3D7D9
:10442000E7005CC154421387C181A1829D8ABA967C
:104430009422B3D6D70014C55442AD829D8ABA9651
:104440009422B3D6D70054C554429395360063DA0C
:104450000500145AB7479C1C938707808506B3D77D
:10446000D702371602405442AD829D8A36970C23FC
:1044700058429386818139830D8B36971823B3D7A1
:10448000B700B3D7E7021CC98280B767CD1D9387F9
:10449000075085B7B7D71213A9BFB737D91393877A
:1044A00007D481BF1397F800634C070037373101F9
:1044B000130707D0B387E7028506B3D7D70215BF26
:1044C00037877D0113070784F5B7B7170240D84B2C
:1044D00081C5498FD8CB82803375A740C8CB8280F5
:1044E000B7170240984F81C5498F98CF82803375A6
:1044F000A74088CF8280B7170240D84F81C5498F27
:10450000D8CF82803375A740C8CF8280B7170240CA
:10451000D85709C51317E729D8D782801317E74959
:10452000E5BF37D6FEBF13060640B70600C0370703
:1045300000C02A96AA96130707C01336160093B632
:1045400016002A97D18E13371700558FB70600C073
:1045500093860680AA9693B61600D98E37F7FFBFCA
:10456000130707402A9737D8FEBF133717001E21BD
:10457000130808C0558F2A9819E363160800BA215A
:1045800093F7F7F8D98F37F7FFBF130707C02A97BC
:1045900009CB37F7FFBF2A9709C7FA2193F7F7CF5F
:1045A000D98F1EA1DE215EB59E211EB519E26314CE
:1045B00008009C251EB985475EA982801E2189C5F9
:1045C00093E717001EA1828041677917F98FDDBF3D
:1045D0005E2501C6CD8F5EA58280B3F5B7404EA59E
:1045E00082805E2141671307F7F8F98F5EA15E2193
:1045F000CD8F5EA182801E294A25ED8F6D8DB33748
:10460000F0003335A0007D8D828093C5F5FF0EA9A3
:104610008280EFB23FBC9E253D67011193F6078073
:104620009396B6482A84AE84639AE6005A2DB18BDD
:104630004D9BD98F5EAD2394050081471628FA2043
:1046400068009396C6489396D648558F1AA8562464
:104650000D671307379FF98EDA20558FB624558FD3
:10466000D98F5EA45A28DE241377F7CFD98F5EA89E
:10467000EFF01FD1B747014093870780631FF40213
:10468000E2476545B3B5A702904081460A063385E7
:10469000A702312C13074006B357E5029306F063D7
:1046A0003375E502920712051305250363F9A60089
:1046B000C1071EA405616FB07FB4D247D9B7335587
:1046C000E502C98FFDB75E2589C59397D7285EA5FA
:1046D000828039677D17F98FDDBF93F5F51F4EA1F5
:1046E00082804A211375F51F82800A216D8D333532
:1046F000A000828013F7F50F15838546B317B02805
:10470000631CD7005A25F98F0A21A181B337F00025
:104710003355B5487D8D828089466314D7001A29A8
:10472000DDB78D466314D7005A29F1BF9146E31DCA
:10473000D7FC5A2DC9BFA181B315B02893C5F5FF89
:104740000EA18280B707002083A7874537177A001C
:1047500013070720B3D7E70293F7F70F2387F186F4
:104760001307803EB387E7022396F1868280B7F76E
:1047700000E0D843799BD8C303C7E1863307A7027B
:1047800098CB98431367070198C3984313671702A0
:1047900098C3D843058B75DF9843799B98C3828073
:1047A000B7F700E0D843799BD8C303D7C186330756
:1047B000A70298CB98431367070198C398431367E0
:1047C000170298C3D843058B75DF9843799B98C32C
:1047D0008280EFB23FA02A84116501118545110541
:1047E00002C202C402C602C802CA02CC02CEEFF064
:1047F0003FCF930700207C82371501408D473EC490
:104800004C00E147130505803EC6EFF01F92374587
:104810000140B70708000C08130505803ECC22C8EC
:1048200002CA231E0100EFF0DFDE37450140854557
:1048300013050580EFF03FE905616FB03F9CEFB2D3
:104840007F992E89B28401446345940026856FB018
:10485000FF9A374501409305000413050580EFF0EA
:10486000DFE865D9B3078900838507003745014034
:1048700013050580B3C50508EFF03FE60504E9B769
:10488000B7060020AA8703A506463727022013078C
:104890000780AA97636BF70037170020130747526A
:1048A00063E5E70023A0F64682807D55828032874B
:1048B000B6882A882E83639C061AA167938747B31C
:1048C00063F8C50AC166637BD6089336061093B6B3
:1048D00016008E06335ED600F2979C23B697930699
:1048E0000002638DD7009D8E3393D500B357F5003A
:1048F0003317D60033E367003318D500135507018B
:10490000B357A302B3450708935608013373A302B4
:104910003386F5024203B3E6660063F8C600BA9632
:1049200063F4C60063F3E604FD17918E33D6A60246
:1049300033480808B3F6A602B385C502C206336839
:10494000D8006378B8003A986374B800637FE810C1
:104950007D16C207D18F3E85C6858280370E000145
:10496000E146E379C6F7C146B5B7F917BA9675BF00
:10497000814609CAC166637CD6049336061093B695
:1049800016008E06B358D600C6979C23B69793069A
:1049900000026395D7043386C54085481355070147
:1049A000B357A602B3450708935608013376A6020B
:1049B0003383F5024206D18E63F86600BA9663F43B
:1049C000660063F1E60AFD17B386664085B7B7084F
:1049D0000001E146E37816FBC1466DB73388F64027
:1049E00033170601B3D6F500B3950501B357F500AB
:1049F0003318050113550701B3D8A602334607083B
:104A0000CD8FB3F6A602330316039395060193D612
:104A10000701CD8E63F86600BA9663F4660063FD05
:104A2000E602FD18B3866640B3D5A602B3C70708F1
:104A3000B3F6A6023306B602C206D58F63F8C700E6
:104A4000BA9763F4C70063FCE700FD15C20833861C
:104A5000C740B3E8B80099B7F918BA96E1B7F915A5
:104A6000BA97EDB7F917BA9685B77916DDB563E44D
:104A7000D512C16763FCF60293B7061093B717000F
:104A80008E07216733D8F600130747B342971823E0
:104A9000130800023E9763120703B337C50093B7AC
:104AA0001700B3B6B600D58F814875B5370700013A
:104AB000E147E3F8E6FCC147E9B73308E840B358FB
:104AC000E600B3960601B3E8D80013DE0801B3D6BA
:104AD000E500B3D7C60333C30808B39505013357C0
:104AE000E5004D8F33160601B3F6C603B30EF3028D
:104AF0009395060193560701CD8E63F8D601C696AD
:104B000063F4D60163F31609FD17B386D641B3D516
:104B1000C60333470708B3F6C6033303B302C2061E
:104B2000558F637867004697637467006372170751
:104B3000FD15C207CD8F93D80701B3C5050833070C
:104B40006740334306084182338E6502338368022F
:104B500093560E01B385C5029A95AE96B388C802E6
:104B600063F466004166B29813D606014696636CFC
:104B7000C700C206334E0E0833150501F296E375E1
:104B8000D5F2E313C7F2FD1705B7F917C696B5BFFF
:104B9000F915469779BF8148814775BB411113D8F4
:104BA00045019397C50022C626C41378F87FB183C8
:104BB000FD81630F08069308F07F6304180D1353FB
:104BC000D5018E073363F3001313732913173500D0
:104BD000130E18C0814E13D546019397C600137566
:104BE000F57FB183FD825DCD1308F07F630605116B
:104BF0001358D6018E07B367F8009397772993125D
:104C00003600130815C0814833060E4113982E0054
:104C1000336818017D18394E33C5D500636E0E0F09
:104C2000216E130E8EAF3348C82103280800028876
:104C300033E3A700630F030485CB139707601308C2
:104C400057FF7543930887FF33030341B397170159
:104C5000335365003363F300B31715011308D0C055
:104C6000330EE8403E87BDB71313056013085301A8
:104C7000F14813070302E3D608FD611333136500FF
:104C8000F1BF33E3A700631A03000147428E894E48
:104C900099B70147014E854E3DBF2A873E83428E1C
:104CA0008D4E15BFB3E2C700638002068DCB13980B
:104CB0000760130F58FFF548130588FFB388E841D4
:104CC000B397A700B3581601B3E8F800B317A600CE
:104CD0001305D0C0BE8233080541C6872DB7131512
:104CE0000660130F5501F14813080502E3D5E8FDEE
:104CF0006115B318A600E9BFB3E2C700639A0200CA
:104D000081472A88894809B7814701488548EDBD10
:104D1000B2822A888D48CDBD63E66700631FF32405
:104D2000636D57241318F301935617009315F70179
:104D3000135313003367D800139E870093D6820164
:104D4000B3E6C601135E0E013358C303B3CF0608A2
:104D500093570701939882003373C303B38E0F03F5
:104D60004203B3E7670063F8D701B69763E4D7005F
:104D700063E8D7217D18B387D74133D3C7033347BF
:104D80000708B3F7C703B38E6F02C2075D8F63785E
:104D9000D70136976374D7016377D71E7D13420816
:104DA00033686800935708013343080833CF080875
:104DB0003307D74193DE0801B303E3033384E703EA
:104DC00033836E02B302830013D303011693B387B8
:104DD000D70363748300C162969793520301B3C3F0
:104DE00003084203BE921E93636657006310571A6E
:104DF00063FE6518B383150133B4B300B304D40064
:104E000026979307F8FF9E8563E5E6000DE0639023
:104E1000E60263665700639CE20063FA6300B385B1
:104E200078009307E8FF33B815013698429733832B
:104E3000654033075740B3B565000D8FFD52638C55
:104E4000E60C3358C703935503013377C703B38286
:104E50000F034207D98D63F85500B69563E4D5007A
:104E600063E855127D18B3855540B3D2C503334767
:104E70000308B3F5C503B38F5F02C2054D8F637896
:104E8000F70136976374F7016377D710FD12931516
:104E90000801B3E5550033C8050813DE05013307E3
:104EA000F741B30F0F03330FEE03338ECE03B38EF0
:104EB0000E0313D80F01FA9E76986374E8014163DC
:104EC0001A9E13530801B3CF0F08420872937E98BD
:104ED00063666700631F67026302080C338EE60097
:104EE0009382F5FF72876361DE0263666E00631171
:104EF0006E0263FB08019382E5FF9395180033B7B8
:104F0000150136977297AE886394080163056700B0
:104F1000968593E215001307F63F6356E00A93F671
:104F2000720081CE93F6F20091456388B600B38695
:104F3000B200B3B55600AE97B6829396770063D6AB
:104F4000060093978749130706409306E07F63CCDA
:104F5000E6109396D70193D23200B3E656008D83C4
:104F6000B2073244B18352077E055D8FB367A70055
:104F7000A2443685BE85410182807D1681456DBB88
:104F80007918B697CDBB7913369711BDC28745B551
:104F90007918B695C9BDF9123697D5BD8148AE824C
:104FA000A5B73685C68E0947638FEE0A0D47638520
:104FB000EE0A0547E391EEF681478146B5A02E85BE
:104FC0009A87BA82CDB73DC3930690FCE346D7FEDD
:104FD0008956634FD7048546998E1306E64133D729
:104FE000D200B392C200B33250003396C700B3E28E
:104FF000C20033675700B3D7D7009376770081CECE
:105000009376F70011466388C600B306C70033B62F
:10501000E600B29736879396870063CB0604939693
:10502000D7010D83D98E8D8301471DBF854675B786
:105030000558B306E840B3D6D7008145630607019B
:105040001306E643B395C700B3E55500B335B0008A
:1050500033E7B600814755B7B70708008146130705
:10506000F07F0145F5BD814781461307F07FCDBD37
:10507000814781460547EDB5411193D74501139806
:10508000C50022C626C44AC293F7F77F1358C8004A
:10509000FD81C9CB1307F07F6381E70E1357D5015C
:1050A0000E083368070113187829931E35001383FF
:1050B00017C0014F13D546019397C6001375F57FAE
:1050C000B183FD8279C91307F07F6301E51213579D
:1050D000D6018E07D98F93977729131736001305BA
:1050E00015C0014E3306A30013152F003365C5010B
:1050F000A9481303160063C7A8128948B58D63C475
:10510000A8107D15854663E8A612728F8946630C48
:10511000DF368D466305DF3685466310DF2681471F
:10512000814815A6B36EA80063810E06630A0802C3
:1051300013170860930857FFF547130387FFB387DA
:10514000174133186800B357F500B3E70701331868
:1051500065001303D0C0C28E3303E3403E8891BF85
:105160009317056093885701714313870702E3552E
:1051700013FDE117B317F500E9BFB36EA800639AFA
:105180000E0001483E83094F35B701480143054FE2
:1051900015B7AA8E3E830D4F31BF33E7C70029CF25
:1051A0008DCB139E076013055EFFF54813078EFF36
:1051B000B388A840B397E700B3581601B3E8F800E6
:1051C000B317E6001305D0C03E873305C541C68737
:1051D00009BF1317066013055701F148130E0702A4
:1051E000E3D5A8FC6117B318E600E9BF33E7C700B1
:1051F00001EB8147094EFDB581470145054EDDB5FF
:1052000032870D4EC5B53315A028937805536391A9
:105210000802137F0524631E0F241375850801CD32
:10522000B685E5B53D46630CC5242D46E30AC5FEAB
:10523000C2877687E1BD13DE0E0193560701B3CE18
:105240000E08B343070833877E02B30F7E029358DC
:105250000701338FD6037E9FFA983305DE0263F48D
:10526000F801416F7A953347070813D40801C20843
:10527000B3CF0708BA9813D70701B382FE03B30769
:10528000FE0313DF0201B30ED703BE9E769F330EDB
:10529000EE026374FF00C1673E9EB3440808935E4C
:1052A0000F0193170F01135F0801B3C2020896970D
:1052B00033897402F29E3E94B3037F029352090134
:1052C0003388E603B38696029E96969663F476003C
:1052D000416E7298B382F40313DE0601429E139866
:1052E0000601334909084A98B30FFF0393D6020118
:1052F000330FE703330797027E97BA9663F4F601FC
:1053000041673A9F13970601B3C202082295169788
:10531000BA9EB337F500F6972A983E9E33B7EE0053
:105320003335A800B3BED7017295C1823367D70168
:105330003697B336FE00333EC501B3E6C601BA96D2
:105340001317980033671701FA963337E0001358A4
:105350007801A60693577501336707012605498F23
:1053600013957600D58F635C050693561700058B61
:10537000D98E1397F701558F85839306F33F6352B8
:10538000D0061376770001CE1376F7001145630837
:10539000A6003306A7003335E600AA973287139696
:1053A00077006356060093978749930603401306D8
:1053B000E07F634AD60C9398D7010D83B3E8E800E9
:1053C0008D83B2073244B183D206FE05DD8EB3E78A
:1053D000B600A24412494685BE85410182803283CF
:1053E00069BFA5C6130690FCE3CBC6D2095663C0BD
:1053F000C6060546B306D6401303E3413356D7002D
:10540000331767003337E000339367003367670073
:10541000518FB3D7D7009376770081CE9376F7007C
:1054200011466388C600B306C70033B6E600B297DC
:1054300036879396870063CD06049398D7010D8332
:10544000B3E8E8008D838146ADBF854675B7055842
:105450003306D84033D6C7000145638606011303DF
:10546000E34333956700498F3337E000518F81471D
:105470005DB7B70708009306F07F814599B7B70776
:1054800008008148CDBF814781489306F07F15BF52
:1054900081478148854635B713D745019397C500A5
:1054A0001377F77F9306E03F2A86B183FD8163D2AD
:1054B000E6049306F0418D8E1385F5FF635CD702F9
:1054C00001458DE9930630419397472963DFE60054
:1054D0009306D7BEB397D700930630433387E64091
:1054E0003356E60033E5C7008280998E33D5D70066
:1054F0008280014582801DC9131705609306E04133
:10550000A947998E63CFE700AD47998F5507B357E9
:10551000F5003315E500B207D206B183B3E5F60016
:1055200082805517B317E5000145F5B781478146DD
:10553000DDB7411122C483A7018726C24AC006C62F
:105540002A89AE8489E78145652623A8A186A68598
:105550004A85792EFD54631A95007D54B240228508
:10556000224492440249410182801304350071981B
:10557000E30685FEB305A4404A859D2EE31095FE03
:10558000E9BF011126CA93843500F198A104B147FF
:105590004AC806CE22CC4EC652C4B3F4F40A2A89B5
:1055A00063C4040063FDB4002320F9000145F24008
:1055B0006244D2444249B249224A05618280E128CC
:1055C00083A741873E8429E8A6854A85EFF07FF6C8
:1055D000FD572A84631FF50A03A44187A287D1EBF4
:1055E0005DC0032A040081454A85229A1126631C66
:1055F000AA081C404A859D8CA685EFF09FF3FD57B5
:105600006303F5081C40A6971CC083A74187D843B5
:1056100025E723AA018615A01440858E63C80604D9
:105620002D47637DD70204C0330794006396870239
:1056300023AAE1865C4014C35CC34A85B1281305E4
:10564000B4009307440061993307F540E301F5F690
:105650003A94898F1CC0A1BFD8C3E9BF5840639555
:10566000870023AAE186D1BFD8C3C1BFA28740402B
:1056700099BF3E84DC43A5B73E87DC43E39E87FEAB
:10568000232207005DBFB1472320F9004A85292066
:1056900031BF04C15DB78280828039713EDA83A751
:1056A000C18032D436D62ED23AD842DC46DE8C4780
:1056B00054102A863E8506CE36C6BD26F2402161AC
:1056C00082801C51011122CC26CA4AC806CE4EC681
:1056D0000045AA842E8999E3EF00F0335E24A18B64
:1056E00099C31C48B5E3A2852685292231CD7D5575
:1056F000F2406244D2444249B2490561828063D893
:105700000700184C63CCE702938765FF85CB1C40EC
:105710001387170018C08CA305091C448345090092
:10572000FD171CC4E9FD63D307022286A94526851F
:105730001528FD57E30DF5FA29455DBF228626851C
:105740001520E31B35FD65B7FD59C1BF1C4013870C
:10575000170018C0294798A3C5B7AA8503A5C1801B
:105760006FF03FF6011122CC26CA4EC606CE4AC8BB
:10577000AA84AE89328409C51C5199E3EF00B0298F
:105780001C4C1CC45E24A18B99C31C4891EFA285BC
:1057900026858D2011C97D59F2406244D244B24918
:1057A0004A854249056182801C4808401D8D5C483D
:1057B0006347F500A2852685EF00F01169FD1C44C2
:1057C000050513F9F90FFD171CC41C4013871700BA
:1057D00018C0238037015C486388A7005E24858B4E
:1057E000C5DF930769FFCDFBA2852685EF00B00ECC
:1057F00045D555B7411126C2AA8403A5C18022C44C
:1058000006C62E8409C51C5199E3EF00D0208317EA
:10581000C40013F7870031E313F7070101EB2547B5
:1058200098C093E707045EA47D55B5A013F7470021
:1058300015C34C5889C9930744046384F500268531
:10584000F128232A04025E2418482322040093F737
:10585000B7FD18C093E787005EA41C4881EF5C4445
:105860001307002093F707286386E700A2852685A3
:10587000EF0010278317C40013F7170015C358480B
:10588000232404003307E04018CC1848014501E701
:1058900013F7070859F7B24022449244410182802D
:1058A00013F72700814611E3544814C4F9BF014798
:1058B0006314E60001458280B307E5000507B3865F
:1058C000E5009C2383C6F6FFE384D7FE3385D740EB
:1058D000828093F5F50F1C2191C76393B7008280F6
:1058E0000505D5BF93B51500B305B0406D8D828019
:1058F000411122C426C2AA842E8506C623AE018683
:10590000EFE01FF8FD576316F50083A7C18791C329
:105910009CC0B2402244924441018280C5C183A709
:10592000C5FF011122CC06CE1384C5FF63D3070047
:105930003E942AC6EFF03FD683A74187324591EBCC
:105940002322040023AA81866244F24005616FF09D
:10595000BFD4637DF4001040B306C4006396D70043
:105960009443DC43B29614C05CC0E9BF3E87DC437D
:1059700099C3E37DF4FE14433306D700631F86000A
:105980001040B29614C33306D700E39FC7FA904382
:10599000DC43B29614C35CC345BF6375C400B14712
:1059A0001CC15DB71040B306C4006396D700944392
:1059B000DC43B29614C05CC040C379B782801C46F9
:1059C000FD171CC663DA0700184E63C5E70093870E
:1059D00065FF99E36FF01FD91C422E8513871700CE
:1059E00018C28CA38280011122CC26CA4AC84EC696
:1059F00052C406CEAA892E8A3284B304D6007D59B9
:105A000063149400014509A80C2052864E85EFF0DE
:105A10001FFB0504E31625FFF2406244D2444249CD
:105A2000B249224A05618280717122D526D34ECFB8
:105A300052CD06D74AD156CB5AC95EC762C5AA898C
:105A4000AE843284368A09C51C5199E3EF00A07CEC
:105A5000DE24A18BF9C39C48E9C393070002A30C81
:105A6000F102A16A9307000352CE02DA230DF1027C
:105A70007D5A938ACA90294BA28B83C70B00333C73
:105A8000F0009387B7FDB337F000337CFC00631858
:105A90000C0AB3868B40638E8B002286A6854E85CA
:105AA00036C6EFF05FF4630F4519D257B246B6978A
:105AB0003EDA83C70B006387071813841B0002D0EC
:105AC00002D652D202D4A301010682DC0C20154674
:105AD0005685EF00D0128257930614003DE113F76C
