:100000006F10002800000000CA0C0000CC0C00009B
:10001000000000007E120000000000000000000050
:100020007E1200007E1200000000000000000000B0
:100030007E120000000000007E12000000000000A0
:100040007E1200007E1200007E1200007E12000070
:100050007E1200007E1200007E1200007E12000060
:100060007E1200007E1200007E1200007E12000050
:100070007E1200007E1200007E1200007E12000040
:100080007E1200007E1200007E1200007E12000030
:100090007E1200007E1200007E1200007E12000020
:1000A0007E1200007E1200007E1200007E12000010
:1000B0007E1200007E1200007E1200007E12000000
:1000C0007E1200007E1200007E1200007E120000F0
:1000D0007E1200007E1200007E1200007E120000E0
:1000E0007E1200007E1200007E1200007E120000D0
:1000F0007E1200007E1200007E1200007E120000C0
:10010000000000007E1200007E1200007E1200003F
:100110007E1200007E1200007E1200007E1200009F
:100120007E1200007E1200007E1200007E1200008F
:100130007E1200007E1200007E1200007E1200007F
:100140007E1200007E1200007E1200007E1200006F
:100150007E1200007E1200007E1200007E1200005F
:100160007E1200007E1200007E1200007E1200004F
:100170007E1200007E1200007E1200007E1200003F
:100180007E1200007E1200007E1200007E1200002F
:100190007E1200007E1200007E1200007E1200001F
:1001A000397101436EC619A0397141536AC866CAD4
:1001B00062CC5ECE21A00100397101535AD056D2D3
:1001C00052D44ED64AD826DA22DC06DE330161400C
:1001D0008282010041114AC026C222C406C6828220
:1001E000B24D4101024D924C224CB24B41010100F3
:1001F000024B924A224AB24941010100024992440B
:100200002244B240410182802A8311C62300B300F8
:100210007D16050365FE8280EFF2DFFB3714024096
:100220001C4041111397A700635B07000545EF10C1
:10023000C04785450565EF1040414101C1B7814583
:100240000565EF1080401C400545939747491CC049
:10025000EF1060420545EF10A0431C4093974729DB
:100260001CC0B7170300938707D43EC6B247138755
:10027000F7FF3AC6C5DF1C401397A700E34807FA0B
:100280000100EDB7EFF21FF519C1793785BF814540
:100290000565EF10803B0145EF1020413717024004
:1002A0001C43939747491CC3D5B7EFF2BFF23744BD
:1002B0000240130404100DC98537A5471CA093877D
:1002C00081851CD4938781895CD0930700201CD042
:1002D000930710F82308F4025C48939787295CC8B9
:1002E000930780031CA019BF9D471CA0613FE5BF79
:1002F000374702408347671313070710858B99CF51
:100300008546230BD702563B858A81CE09C989468B
:100310006306D50018231377070211C389473E856A
:1003200082808147EDBFB747024093870710DE3BCD
:1003300013070020014593F70760638BE70005452D
:1003400081CB1307004009456384E7001305F00FD4
:100350008280EFF23FE83744024013040410A30107
:1003600004005C549304C01293E717005CD48347E5
:100370006403C18B89C7C147230BF40241B5130540
:100380004006FD14EF100044FDF0CDBFB74702401A
:1003900003D74713058B15C7938707109C2393F743
:1003A000070295E3EFF21FE32A84B53F08A0B747A1
:1003B000024003C707100145136707022380E710B7
:1003C00035BD59458280B747024003C70710014534
:1003D000136707022380E7108280EFF2FFDC1379B6
:1003E000F500A547B289631FF90493F50518B335E5
:1003F000B000939C850033E5AC0037440240814453
:10040000131A052913040410C14A054BF15B254C4E
:100410002322440123045401130D803E1C24C18B6C
:1004200089EB7D1D0545334D0D08EF10A039E3170D
:100430000DFE5C40C19B5CC01C24C18B99EB130575
:10044000E00F81A88547814CE317F9FA93F505146D
:1004500079BF03456403058905C1230B64031305B4
:10046000800CEF1020365E38858BD5C31C2093F7A7
:100470000702BDC3554531A81C24C18BD1C7183410
:100480009377F700631489038D466395D7006398CB
:100490000C0089BBAD466390D702E39C0CFE1D8B1C
:1004A00075171DCB95CB13E50702E5B79376B7001B
:1004B0000946E380C6FEB946638DD704A946639911
:1004C000D702638B0904C167F917B3B7370193B734
:1004D0001700B389F940FD143D45EF10A02E8504A7
:1004E00093F4F40FA947E395F4F21305000255B70E
:1004F000B546E309D9FAE3E426F58546E304D9FADB
:10050000A546E31ED9F261BF23047401F1B7594532
:1005100049B71305E002B5BF1305A0029DBFEFF276
:10052000BFC92A8AB289130540062E89EF10802997
:100530006384090023900900374402401304041027
:10054000A1473D661CCC130606A68145354571358D
:1005500071E55C40138B818593F7F7CF83546B0073
:1005600093E707105CC0C1C0630F090683070B0047
:1005700063D0070C938A818913054006EF1080240D
:100580004C403D66130606A6B3C505082545B135A2
:1005900051E55C4093C707105CC0584CA687637553
:1005A00097005C4CB3C707086387090003D70900AD
:1005B0003E972390E9000147B34607086391D706A9
:1005C000584C01CF544C1307FAFF758F19E73E9929
:1005D000B387F440B3C40708C5F0B7470240938718
:1005E000071023AC07001305400637440240EF1004
:1005F000601D13040410084C3D66130606A613354F
:1006000015003305A0406199930500102505F133CD
:1006100011E51C4C81C75C4C91C35D45D1BEB3064E
:1006200057019022B306E900050790A271B75689D9
:1006300013054006EF100019B3579A0A1CCCCA8A5A
:10064000184CB3872A41B3C70708639EE7024C40A2
:100650003D66130606A6B3C505080545BD3B5DFD11
:100660005C4093C707105CC01C4CB387F440B3C414
:10067000070863880900184C83D70900BA972390AC
:10068000F900D5F48DB703C70A00DA97850A98A355
:1006900045BFEFF23FB4A1470111370700011CA18C
:1006A000938781851307076898C337071200D8C35B
:1006B0002A8408211306E1012EC6953509E9B245C1
:1006C000B887FC311CA0C54763E3E7005D450561C1
:1006D00035B6EFF27FAEB704000241111384818575
:1006E000328A93840468370904003686AA892EC6A4
:1006F00004C02322240136C41D3515E522468D474A
:100700005D451A2263F1E702B2454E85BC31B8213E
:10071000A207D98FB3D7470B1EA22322240104C0FE
:100720001E227EA0ED3B4101E1B4EFF2BFAA938708
:1007300081851307005098C3AEA32E8401468145DE
:1007400023A20700E93BAA8411E91374F407B74711
:100750000240A38187101545EF10E009268579BC7A
:100760000567938781851307079098C3AEA3014659
:10077000814523A2070065B39387818523A20700E3
:1007800013072010CEA30146814598C349BB11C968
:10079000EFF25FA4AA8515651305851EEF3050267C
:1007A00001A08280EFF21FA315651305851FEF30AE
:1007B0003031156513054522EF3090300545F5348D
:1007C000156513058523EF30B02F9387818523AE00
:1007D000F180938781897D468145138531A023A0CF
:1007E000F1821D341306A01081451385219E293CFA
:1007F000156513054525EF30B02CEF009020FDBAAC
:1008000085476317F500370500201305E565BDBE74
:100810001305B00F828085476319F5003705002066
:10082000938541A01305F565ADB51305B00F828022
:100830008547631AF5009387419E03C537028D45AE
:10084000A380B702DDB51305B00F82808547631C16
:10085000F500B707002003C5F765AE861306F00F55
:10086000938581A1BDB51305B00F828085476317BD
:10087000F500B707002003C5F765DDB51305B00F18
:100880008280EFF27F922A8B1565011113054527AF
:10089000EF30102395670544938BC7279567930A1C
:1008A0004006228A138C8729994913054006EF00D8
:1008B0009074214533158500EF00F073A2855E85A5
:1008C000EF30101463134B0169346285EF30501F11
:1008D000814401495A852D3719E505091379F90F26
:1008E000814463EA290185040545B3C40408EF0087
:1008F0009070E39154FF15654A86A6851305C52AB5
:10090000EF30101091C863173401D9452E85056169
:100910006FF05F8D050451BF15651305052DEF3090
:10092000300E5A85CD3DAA852AC615651305052EBC
:10093000EF30100DB24581CD15651305C52FEF3091
:10094000300C9947E318F4FC93055004C1B71565C2
:1009500013058530EF30D00A5A85D93DAA851DEDA3
:10096000956413858431EF30B0151545EF00B068FC
:1009700015651305C531EF30B0089305E1015A85BF
:10098000F135AA851DC515651305C52FEF30500734
:100990009947E311F4F8930570048DBF15651305AD
:1009A000C52FEF30F0059947E316F4F69305600480
:1009B000B1BF83C5D1A115651305C5322EC6EF3071
:1009C0003004B2455A855D35AA8501E92AC61385EA
:1009D0008431EF30F00EB24515BF15651305C52FF4
:1009E000EF3010029947E317F4F29305B00F39BFC7
:1009F000EFF24FFE1384419E683C4111EFF05F8F90
:100A00008545AA84631AB504156513058533EF304F
:100A1000300B683CEFF0DF8D268564BC2302940226
:100A20008D352A8619ED2AC61565A6851305453428
:100A3000EF30007D8D477CBC3246328541016FF03E
:100A4000EFFB1565A68513050537EF30607B8947F9
:100A50007CBC1306C00FD5B71306E00F79FD1565F2
:100A60001305053AEF30C079034444027D468145C1
:100A7000138531A0EFF04FF91306A0103304C40220
:100A8000370500201305055381452295EFF0CFF778
:100A9000238601EC594655B7EFF20FF2913F3DE541
:100AA00091472386F1EC95671389C73B9567938936
:100AB000074095672944138A87414A85EF305000E3
:100AC000EF105011AA851DE115651305053DEF30A6
:100AD000207383C5C1EC15651305853EEF30407268
:100AE00005472382E18241456FF08FF04E85EF305C
:100AF000207183C5C1EC52857D14EF306070130501
:100B000020031374F40FEF00104F45F803C5C1EC38
:100B10001375F50FD1BFEFF22FE9BD3F83C6C1ECCE
:100B20001147637BD70C03C6418285466316D60CFA
:100B30002382018283C5C1EC156513050543EF309F
:100B4000206C156A93058A44138581D1EF30900C8F
:100B5000EF2000269307E5FB156B956A138481D17E
:100B6000938981A1956481C71305D5F441E9156581
:100B700013054545EF30C07493058A44138581D130
:100B8000EF305009EF20D022193113050B47EF3019
:100B900020739385CA47138581A1EF30B0070149BF
:100BA000930AE0039384C44B294A2310540123225F
:100BB0003401EF300006E13ECA8526850509EF3095
:100BC0002064E31449FF15651305054DEF30406FB0
:100BD000D1777D579387276B5CC018C018A4EF208E
:100BE000D04B753615651305854DEF30606D854723
:100BF0001CA0EF203005613E6FF0CFDE13050B47E0
:100C0000EF30006CFD571CC0EF20D0579385CA47CA
:100C10004E85EF3030000149130BE0039384C44B41
:100C2000A94A2310640123223401EF20907E8536E7
:100C3000CA8526850509EF30A05CE31459FF9305AA
:100C40008A442285EF30007DEF20801615659305DC
:100C5000C0031305054EEF30A05A9567938B874F5D
:100C600095671309C003930AF003138C0750335B95
:100C7000590B2310640123223401EF207056035ACC
:100C8000040081441E20639197026285EF30406327
:100C90001E2063F567036285EF30806215651305DA
:100CA0004550EF30E061B1B75C405E85A6978C237C
:100CB000850493F4F40FEF30A054E9B7330A4941A7
:100CC00033490A08E31509FA2DB701A0EF00B04235
:100CD00023ACA182EF00904223AAA182EF007042D0
:100CE00023A8A1820A8723A6E182068723A4E182A2
:100CF000B707EFBE37E700E0938707083CC701A0BE
:100D0000EFF24FCD83A7C183850723AEF18239244B
:100D1000EF00B02837150E00EF001031B717024072
:100D2000D05383A5C183156513054551EF30404D60
:100D300083A7818381E783A7418385C783A58183B7
:100D400003A6418383A6018303A7C18283A781826F
:100D500015651305C552EF30A04A23AC018223AAC2
:100D60000182B707002083A5C74515651305855681
:100D7000EF300049B707002083A5874515651305A7
:100D80008557EF30E047612BAA8515651305C558D7
:100D9000EF300047156585451305C559EF304046CE
:100DA000EFF05FA005472382E182B533FDBFEFF28C
:100DB0006FC2371402401C4041113707FF8093E790
:100DC00017001CC05C40F98F5CC05C40B18BF5FF24
:100DD0001C403707A7FE7D17F98F1CC01C40370742
:100DE000C1FF7D17939727491CC05C40F98F5CC0F9
:100DF0005C543727F103130707809397C7485CD4E7
:100E00005C54F98F5CD45C409397D7295CC023284D
:100E10000402B7078F001CC41C40939727291CC0ED
:100E20007D2B02C202C402C61C403717024037069F
:100E30000200939707291CC099661C43F18F3EC49A
:100E4000924785073EC2A24781E79247E397D7FEC4
:100E5000184385479316E70063D0060C3EC422472B
:100E60006319F70AB7170240D843B706190013678A
:100E70000708D8C3D843D8C3D843D8C3D843558F5D
:100E8000D8C398431317872998C3984393166700CC
:100E9000E3DD06FED8573966B1661317E728131746
:100EA000F728D8D7371702405C57F18FE39ED7FE5B
:100EB00037066745B727024013063612B796EFCDBF
:100EC000D0C39386B69AD4C3D0D3D4D3944B36C66A
:100ED000B246939696499396A64936C6B2469396DD
:100EE000962936C6B24694CB944B93E60608939661
:100EF000F62894CB5C57B71602409397C7285CD767
:100F00005C4393E727005CC32147DC42B18BE39E3F
:100F1000E7FE41016FF08FAE02C491B7B7150240F2
:100F2000D441D055B7877D01B18A114537070020DC
:100F300093870784638BA606B737310121459387D2
:100F400007D06394A60683A84500D455C841B96765
:100F50007D8E458195679375F50193878760AE9780
:100F60009C23A1829D8A1388B5FF3943850693F798
:100F7000F70F8145636403019375150011656300E4
:100F8000A606636AC50039E6B7479C1C93870780AD
:100F9000232EF74439A019656306A604316563085A
:100FA000A6048327C745B3D7D702232EF7443717A4
:100FB000024054431567130787629182BD8A3697B2
:100FC0001823B3D7E70037070020232CF74423A0CA
:100FD000F1848280B767CD1D9387075055BFB7D77F
:100FE00012137DB7B737D913938707D455B7139624
:100FF000F800634C060037363101130606D0B3877C
:10100000C7028505B3D7B70261B737867D011306DE
:101010000684F5B79357450012053E951375F50FF5
:101020006FF0AFBBEFF20F9B9C214111AA857C872B
:10103000B707002003C5F7651306E100EFF02FCED8
:1010400041016FF0AF9BEFF2EF98B707002003C5A7
:10105000F76541119306E100130600109385818521
:10106000EFF02FE741016FF06F99B7070020AA85D5
:1010700003C5F7656FF0CFEEB7070020AA8503C55B
:10108000F7656FF06FEFEFF22F928D692A8AAE8CC1
:10109000814413848185130C00F89389A98083C748
:1010A00011F1668523068401B317FA001CC483C7B7
:1010B000C1EF23173401230804005CB483A781EC3B
:1010C000A30A0400230B040013D7870118B813D711
:1010D000070138A813D787005CA838B8A30B4401D0
:1010E000230C0400EF00B02683C741ED13F5F70F82
:1010F00089CF2685EF009071238AA1EC83C741ED4B
:1011000099C703C541ED1375F50F6FF0AF8D8504D9
:1011100093F4F40F8D47E394F4F87D45238AA1EC12
:10112000EDB7EFF26F880D6AAA8A2E8D01491384FC
:101130008185130AAAA00D4B83C711F16A85230686
:101140000400B397FA001CC483C7C1EF23174401FE
:10115000230804005CB483A781ECA30A0400230BDA
:10116000040013D7870118B813D7070138A813D77D
:1011700087005CA838B8A30B5401230C0400EF00CF
:10118000101D83C741ED93F4F70F99E71305800C09
:10119000152D26856FF00F854A85EF003067238A6D
:1011A000A1EC83C741ED91C783C441ED93F4F40FE3
:1011B000CDB705091379F90FE31069F9FD44238AC6
:1011C00091ECC1BFB747024003C737101377F70749
:1011D000A381E71003D7471383C637108D47639C5D
:1011E000F6009377170081CB118B01C7094723863F
:1011F000E1EC0145828005472386E1EC5945828078
:101200008280EFE23FFDEF009012AA853D47130573
:10121000F00F6373B70615651305855BEF20507EED
:10122000938781B123AAF1EA23AEF1E8254723860B
:1012300001ECA388E1F0930700202390F1EE23A8AE
:1012400001EE239BF1EEB74702409387871223A854
:10125000F1EAB74702409387471223ACF1F0B74752
:1012600002409387871123A8F1E8B747024093878C
:10127000C71123AEF1EA01456FE05FF8ADAB01A005
:10128000970100209381819D17110220130181D7BE
:10129000174500001305055397F5FF1F9385851625
:1012A00017F6FF1F1306461D63FAC50083220500CB
:1012B00023A0550011059105E3EAC5FE1385C18100
:1012C000970500209385858B6377B5002320050063
:1012D0001105E36DB5FE9302001073B052809302C6
:1012E0001002739002BC8542739012BC9D427390B1
:1012F0004280930280687390023097F2FFFF9382DE
:1013000062D093E2320073905230EFF05FAA9702FE
:1013100000009382229F7390123473002030B7F73D
:10132000FF1F03A5477082809C4513F7070113F840
:10133000F70001C7D8413368E80092211377F60F10
:101340001DCF144101473D4E930E8002130F8004C0
:101350002143B355E648B318E02891CD93152700F3
:10136000B31FBE00B3F6F641B315B800CD8E639E31
:10137000D705232A15010507E31D67FC14C11307D0
:10138000F00F6373C704584181463D4E930E8002AF
:10139000130F8004214393858600B35FB648B318CA
:1013A000B028638F0F0093952600B31FBE003377DC
:1013B000F741B315B8004D8F639ED701232A15015D
:1013C0008506E39A66FC58C18280E396E7FB2328F2
:1013D000150155B7E396E7FF23281501D5B7EFE2CE
:1013E0007FDF411185451305C00702C202C402C652
:1013F000852CB7F7FF1F83A747703707734693F70E
:10140000F7F06388E70E636FF7003707714605074B
:10141000638FE7083707724609076384E7044101D1
:101420006FE0DFDD3707744605076388E70A370793
:1014300075460907E395E7FE9147371501407C8221
:101440004C0093078002130505C03EC6F13D93078B
:10145000003C4C00371501407C82F9359167ED174F
:1014600035A09147371501407C824C0093078002DC
:10147000130505C03EC64D3D9307003C4C00371593
:1014800001407C82553591679387B7EF371501404E
:101490004C00130505407C82413D8967FD177C8225
:1014A000372501404C0013050580BD3D8DBF9307D6
:1014B000003C7C824C0093078002371501403EC6F9
:1014C000A5359307B0EF371501404C0013050540D3
:1014D0007C82993D9307C00FD9B79307003C7C826B
:1014E0004C0093078002371501403EC6353DED574D
:1014F000D9BF930700087C82930780023EC64DB790
:10150000B7160240D042D856B7877D01318A91453F
:1015100093870784630AB606B7373101A1459387DD
:1015200007D06313B606B96783A846007D8FDC56E3
:10153000D0423943A1839D8B13881700458295675C
:101540009376F60193878763B6979C239385B6FFBE
:10155000814693F7F70F6364B30093761600116624
:10156000630AC70A6369E6004DE3B7479C1C93878B
:1015700007801CC139A019666301C70A316663037D
:10158000C70A1C41B3D707031CC137160240544297
:101590001567130787659182BD8A36971823B3D7DD
:1015A000E7005CC1544213874181A1829D8ABA96AB
:1015B0009422B3D6D70014C55442AD829D8ABA9600
:1015C0009422B3D6D70054C554429395360063DABB
:1015D0000500145AB7479C1C938707808506B3D72C
:1015E000D702371602405442AD829D8A36970C23AB
:1015F00058429386018139830D8B36971823B3D7D0
:10160000B700B3D7E7021CC98280B767CD1D9387A7
:10161000075085B7B7D71213A9BFB737D913938728
:1016200007D481BF1397F800634C070037373101A7
:10163000130707D0B387E7028506B3D7D70215BFD4
:1016400037877D0113070784F5B7B7170240D84BDA
:1016500081C5498FD8CB82803375A740C8CB8280A3
:10166000B7170240984F81C5498F98CF8280337554
:10167000A74088CF8280B7170240D8576A05131752
:10168000A7491317B749D8D7D857598DC8D78280DB
:10169000B7170240D85772051317C7491317D74910
:1016A000D8D7D857598DC8D78280B7170240D85796
:1016B00009C51317E729D8D782801317E749E5BF73
:1016C000EFE25FB19E253D67011193F60780939687
:1016D000B6482A84AE84639AE6005A2DB18B4D9B9E
:1016E000D98F5EAD2394050081471628FA20680043
:1016F0009396C6489396D648558F1AA856240D67D8
:101700001307379FF98EDA20558FB624558FD98F5E
:101710005EA45A28DE241377F7CFD98F5EA8CD3385
:10172000B7470140938707806310F404E24765459B
:10173000B3B5A702904081460A063385A702EF2081
:10174000407D13074006B357E5029306F0633375F7
:10175000E502920712051305250363F9A600C107E8
:101760001EA405616FE09FA9D247D1B73355E502AA
:10177000C98FFDB75E2589C59397D7285EA582805E
:1017800039677D17F98FDDBF93F5F51F4EA1828074
:101790000A216D8D3335A0008280B707002083A712
:1017A000874537177A0013070720B3D7E70293F767
:1017B000F70F2383F1841307803EB387E702239258
:1017C000F1848280B7F700E0D843799BD8C303C780
:1017D00061843307A70298CB98431367070198C326
:1017E00098431367170298C3D843058B75DF984356
:1017F000799B98C38280B7F700E0D843799BD8C320
:1018000003D741843307A70298CB98431367070196
:1018100098C398431367170298C3D843058B75DFA5
:101820009843799B98C38280EFE2DF9A2A841165FE
:1018300001118545110502C202C402C602C802CACE
:1018400002CC02CE313D930700207C823715014047
:101850008D473EC44C00E147130505803EC6EFF0BE
:10186000BFAC37450140B70708000C0813050580D9
:101870003ECC22C802CA231E0100993537450140DB
:10188000854513050580FD3505616FE03F97EFE263
:101890007F942E89B28401446345940026856FE0CD
:1018A000FF95374501409305000413050580CD35AC
:1018B0006DD9B307890083850700374501401305BB
:1018C0000580B3C50508C9350504F9B7AA8703A57E
:1018D00081803727022013070780AA97636BF700E0
:1018E00037170020130787B763E5E70023A4F180CB
:1018F00082807D5582807325103482807325203448
:1019000082807325303482804111094506C622C485
:1019100026C2EFF0BF9683C741EDA38FF1F0EFF041
:101920007F8AAA8735E903C7C1EC8D469307300843
:1019300063F4E60683C6C1F113061002238CC1844A
:101940007D5693878185A38CC18423810700A38161
:1019500007002382D700A382070023830700A38305
:1019600007008145EFF00FEC238AA1EC5947AA87C5
:101970006304E50203C501EC3D89EFF0EFEF03C519
:1019800001F13D8913650508EFF00FEF83C7F1F111
:10199000A38F01F0238AF1ECB240224492443E85A9
:1019A000410182804111054706C62386E1ECEFF034
:1019B0007F8119E113053008B24041018280411155
:1019C00022C483A781EC03A741F006C601456384C6
:1019D000E70283A5C1E903A741EB23A2F1F0630865
:1019E000B7020545EFF02FEA238AA1EC09E903C508
:1019F00041ED1375F50FB2402244410182807D57BD
:101A000023AAE1F023A2E1F0238001EACDB7054546
:101A100023AAF1F0EFF02FE7238AA1EC69D9C5B72B
:101A2000411122C483A781EC03A741F106C60145F9
:101A30006384E70283A541EB03A7C1E923AAF1F080
:101A40006308B7020545EFF00FE4238AA1EC09E92A
:101A500003C541ED1375F50FB24022444101828068
:101A60007D5723AAE1F023A2E1F0238001EACDB75C
:101A7000054523A2F1F0EFF00FE1238AA1EC69D92B
:101A8000C5B783A781EC83A5C1E9411103A741EB49
:101A900022C406C623A2F1F06305B7020545EFF0A4
:101AA0004FE8238AA1EC01C97D5723AAE1F023A2C4
:101AB000E1F0238001EAB240224403C541ED410137
:101AC000828023AAF1F0D9BF83A781EC83A541EBE3
:101AD000411103A7C1E922C406C623AAF1F0630598
:101AE000B7020545EFF0EFE3238AA1EC01C97D576A
:101AF00023AAE1F023A2E1F0238001EAB2402244CC
:101B000003C541ED4101828023A2F1F0D9BF03C694
:101B100081E983A781EE03C7D1F183A681F0F9178C
:101B2000B397C7003697BA9723A4F1EC828041455A
:101B3000828083C7C1EC93F7F70F63E6A700238683
:101B4000B1EC01458280E38EB7FE6FF0BFE579719D
:101B500026D21307500556CA238CE184130730059B
:101B6000A38CE18483A701E913072004238DE1847A
:101B70001307300422D44AD04ECE52CCA38DE18438
:101B800006D67D475AC85EC662C42390E7002A8401
:101B900083C5F1F103C501EC37060200EFF08FC7F2
:101BA000238AA1EC59476300E516938B81851DCDEF
:101BB000938781859384818798439107D8CFE39D4C
:101BC00097FEEFF07FD4DE879853910723AEE7FEB0
:101BD000E39C97FE83C5F1F103C501EC37060200D3
:101BE000EFF04FC3238AA1EC631B051683C49B004F
:101BF00003C68B0083C7AB0003C7F1F183C6BB00EC
:101C0000A204D18CC207C58F1347070493948601A1
:101C1000A38FE1F0DD8C638404108386CB0083D72F
:101C200061EF63D40608138B818991A000C383C53B
:101C3000F1F103C501F137060200EFF0AFBD238AD1
:101C4000A1EC631F051403C7F1F183A6C1EB83D791
:101C500061EF13470708A38FE1F083D6060063E224
:101C6000F4189D8C639FD7143E94638C041403A7CF
:101C700081F1E3FDF4FA2320670155BF23A088001A
:101C80002390F60083D761EF9D8C3E94EFF08FB8E0
:101C9000238AA1EC2DE103C7F1F113470704A38FB9
:101CA000E1F06387040E83D761EF03C801ECBA85C6
:101CB0003706020083A801EB83A601E94285E3FF12
:101CC000F4FA23A07801239096008147034604008C
:101CD000B38677018507C2072380C600C183050448
:101CE000E39697FE37060200BA854285EFF08FB281
:101CF000238AA1EC61CD03A701EB9307E002232027
:101D000077016300F508B250225492540259F24907
:101D1000624AD24A424BB24B224C4561828003C593
:101D200001F137060200BA85EFF0CFAE238AA1ECAD
:101D300079F983C7F1F103A7C1EB93C707F8A38F24
:101D4000F1F0FD47238AF1EC03570700B54763150F
:101D5000F70203C5418A31C1854763FFA7002254BA
:101D6000B25092540259F249624AD24A424BB24BA3
:101D7000224C45616FF05FB903C541ED1375F50F56
:101D800059B703C501EC3D89EFF00FAF03C7F1F17F
:101D900083A701EB23A0770159B7238A01ECA5B7EC
:101DA00083A681F11307E00223A06601E31DE5F499
:101DB00003C501F13D8913650508EFF0EFAB03C7DB
:101DC000F1F183A781F123A0670191BF03C7F1F16E
:101DD00083A701EB13470704A38FE1F023A077014A
:101DE0003DBF63E5D402F1DE9387F6FFC207C183EE
:101DF0008507A2975A878346070005040507A30FA6
:101E0000D4FEE39A87FE03C7F1F165BF9396040100
:101E1000C182D9BF4111294506C6EFF02FC603C7BD
:101E2000C1EF93878185A386E700C94619472384BC
:101E3000D7002387E700930600F80D47A387E70044
:101E4000A3840700494723850700A385070023864D
:101E5000D70013858187A389E70023880700A3881B
:101E6000070023890700238A0700A38A0700238B22
:101E70000700A38B0700238C0700EFF05FCD15450B
:101E8000EFF0CFBF83C741ED014593F7F70F81CF47
:101E900003C541EDD9471375F50F6309F500D54723
:101EA000630CF5000145B24041018280054723865D
:101EB000E1EC23A801EEC5BF09472386E1ECE5B7B5
:101EC0003971A54722DCA388F1F0BD472386F1EAEA
:101ED00026DA4AD84ED652D456D25AD05ECE62CCEA
:101EE00066CA6AC86EC606DE938D81859384C1EA90
:101EF000214B930A00F8130A5002A949854C4D4D15
:101F00003DA863FADC0A6308A70BA380E400EFF0A6
:101F10007FF003C5C1EA03C7140072057D85137500
:101F200085F71305850C238AE1ECEFF02FB503C785
:101F3000C1EA7D171377F70F2386E1EA2DCF03C798
:101F4000C1EF1385818723846D01A386ED00A384EF
:101F50000D0023850D00A3850D0023865D01A38759
:101F60004D0123880D00A3880D0023890D00238ACD
:101F70000D00A38A0D00238B0D00A38B0D00238C75
:101F80000D0023873D01A3890D00EFF05FBC03C75F
:101F900041ED1377F70F9306B7FE93F6F60F35F37F
:101FA00083C76D0211476382E70421476384E70416
:101FB00041476388E70403C711F18547B397E700FA
:101FC000C207C183F25062542390F1EE03C514009E
:101FD0004259D254B259225A925A025BF24B624C85
:101FE000D24C424DB24D21618280A38831F19307DA
:101FF0000040C9BFAD47A388F1F08567938707808C
:10200000D1B7B147A388F1F085676DBF411126C2F2
:10201000AA84054506C622C4EFF04FA6854763F2A1
:10202000970683C7C1ECC94693F7F70F6388D700BB
:10203000C14663F8F6002386D1EC21A0954723869C
:10204000F1EC83C741ED93F7F70FAD1793F7F70F57
:1020500005476375F700EFF0FFDB11CD0945EFF0A1
:10206000EFA103C541EDD9471375F50F630AF502DA
:10207000D5476301F504B240224492440145410131
:10208000828083C741ED93F7F70FE1F00945EFF048
:10209000EF9E03C541EDD9471375F50FE31AF5FC23
:1020A000B240224405472386E1EC23A801EE924486
:1020B00041018280B240224409472386E1EC9244E8
:1020C0004101828039716EC606DE22DC26DA4AD8EA
:1020D0004ED652D456D25AD05ECE62CC66CA6AC8A8
:1020E000EFF04F8EAA8D71E983C7C1EC0D4763767F
:1020F000F70E91472386F1ECEFE0FFF4238AA1EC81
:10210000AA8D45ED938C818583C6EC002147639DA4
:10211000E60C03C6FC00238201EE99466315D60047
:1021200085462382D1EE03C77C0183C5BC0003C66C
:102130006C0183C6EC0103C8DC0103D361EF220705
:10214000A206238EB1F0518F238601EAB3E6060181
:1021500003C64C0183C5BC0103C801EC03CE01F1E9
:1021600063106708620661861373F600634606080B
:102170001368030101460543639EE61E139785011C
:1021800061879376F700138BC1EA63460708094716
:102190002386E1EAA300BB0013E80601631F0618CB
:1021A000238001ED61A083C641ED1306E002630FB9
:1021B000D62003C741ED937DF70FF25062546E8530
:1021C000D2544259B259225A925A025BF24B624C93
:1021D000D24C424DB24D21618280930D3008F1BF47
:1021E0001389C1EAA300C900FD47238AF1EC03C7A4
:1021F00041ED937DF70FD1B7136E030905460143F7
:10220000E38EE6F69387C1EA2386C1EAA380B7008E
:102210002388C1F1D1BF93E606F909472386E1EA95
:10222000A300BB002388D1F0E31C03F603C55C00C8
:10223000EFE0BFE3238AA1ECAA8D41F183C6C1F18F
:10224000130610FA03A541EB238CC1847956A38CA5
:10225000C184854A9385D1EA238601EA23810C0053
:10226000A3810C002382DC00A3820C0023835C0189
:10227000A3830C00EFE01FDB238AA1EC0DF583465E
:102280001B006398560183A641EB83C60600238694
:10229000D1EA1545EFE09FFEFD5623AAD1F023A217
:1022A000D1F003A541EB238001EAA38F01F0238E37
:1022B00001EE0146130C4002930B00F8194BC94A7A
:1022C000130A4002A386CC0023848C01A3840C0053
:1022D00023850C00A3850C0023867C0123876C01D9
:1022E000A3875C0123880C00A3880C0023890C00C1
:1022F000A3894C01238A0C00A38A0C00238B0C00B9
:10230000A38B0C00238C0C00EFF07F8483C641ED7F
:10231000054693F6F60F8DE683C6C1EAB9C283C6B9
:10232000C1EFA1E203A541EB954783460500639AFF
:10233000F6028547238EF1EE71B72388C1F18DB582
:1023400083C6C1EAA9C283C6C1EF894713861600B6
:102350001376F60F63E9D702238EC1EE03A541EB96
:1023600095B783C7C1EC8D4663F2F6049547238683
:10237000F1ECA1B59387C1EA238661EAA380B70097
:10238000238001ED95B56254238E01EEF250D254B4
:102390004259B259225A925A025BF24B624CD24CC9
:1023A000424DB24D054521616FF05FC66254F25057
:1023B000D2544259B259225A925A025BF24B624CA1
:1023C000D24C424DB24D21616FF0CFDD0145EFE0BF
:1023D000BFCAC1B5411126C222C406C623AC01D072
:1023E000EFE05FDE2A8441E183C7C1EC11476372ED
:1023F000F7089387818503C7C1EF23840700A3866D
:10240000E7001947A384070023850700A385070079
:10241000238607002387E70013858187A3870700AA
:1024200023880700A388070023890700A3890700E2
:10243000238A0700A38A0700238B0700A38B0700CA
:10244000238C0700EFF0AFF083C741ED93F7F70F50
:1024500099CB83C741ED2386F1EAEFF0BF9B03C41C
:10246000C1EA238A81EC2285B24022449244410190
:102470008280EFF03FC511C913050004EFE01FE0B3
:10248000EFF05FC419C12A84F9BFEFF07FA305E51F
:102490009387818503C6170283C5070283C6270277
:1024A00003C7370222064D8EC206D18E6207558FB2
:1024B00023ACE1D089B703C441ED1374F40F65B7C1
:1024C00083C7C1EC397106DE22DC26DA4AD84ED643
:1024D00052D456D25AD05ECE62CC66CA6AC86EC694
:1024E00011476374F73803A701EFFD5723AAF1F0F2
:1024F00023A2F1F0238001EAB7573412937607FF45
:1025000093870767638AF636938401EDA3800400FE
:10251000238A01EEA38E01F023AE01EC2D6A130A8B
:102520005AA5138DC1EA23A401EC930B900E930DD1
:102530000004EFF0EFCE6314051283C6140003A667
:1025400041EB99E68347060093F7D70F638B771724
:102550008357E61F6398473183CE41EF2388D1ED3F
:10256000638FBE2F9387EE1BB29783C5A70003C767
:10257000B70003C8870003C59700A301ED002386B9
:1025800001EBA300AD002301BD0083A5C1EA83C711
:102590004700154723A4B1EC2386F1EA6387E72AB5
:1025A0003D476384E72A7687014F01433545054E51
:1025B0001548BD489DA083C7C1EAFD1793F7F70FE3
:1025C000930F07019382F6FF6367F500637EDE0ECB
:1025D00093F6F20F054F13F7FF0F9307E71BB29720
:1025E0006306B70B03C3A70083C5B70083CF97006B
:1025F00023016D00A301BD00A300FD0183C5870079
:1026000083C7470005432386B1EA83A5C1EA238631
:10261000F1EA638F0701638D1701939F870193DFB1
:102620008F4193F7F703E3D80FF82386F1EA71B7E8
:1026300023A4B1EC63040F00A380D4002388E1EC51
:1026400083A7C1ED83C6D1F1BE9523A4B1ECE3927B
:1026500006EE4107A38EE1F023AEB1ECF9B5EFF041
:10266000AFAAEFF0FF85EFF0AFBBE30805ECF25047
:102670006254D2544259B259225A925A025BF24BD6
:10268000624CD24C424DB24D216182806304030002
:1026900023A4B1EC63040F00A380D40083C7D1F15D
:1026A000130700042388E1EC638B071A63990E1A61
:1026B00003C71400238AF1EE23AE01ECBD47E314F7
:1026C000F7E683A581EC05A06302031E23A4B1EC09
:1026D00063040F00A380D4002388E1EC83A741F1B9
:1026E000BE9523A4B1EC23A8B1EEEFF06FB341F196
:1026F00083A541EB1307900E83C7050093F7D70F0F
:102700006390E71A83C7D50013978701238AF1EEF8
:1027100061876342071819478607238CE1E893F71E
:10272000F70F0145194793968701E1861306F7FFD6
:10273000860763C706101377F60F93F7F70F054563
:102740007DF38547238C01E8238AF1EE03D56501EB
:1027500023ACA1EC01E5C85123ACA1EC83C7450132
:1027600003C63501A207D18F23ACF1EA81E79C5162
:1027700023ACF1EA03C6250183C8150183D601EE17
:1027800003C311F1220633661601958283D8E50052
:10279000B296FD161306B3FFB3D6C64033861601B4
:1027A00003CF05012A9623A2D1EA23A211ED23A685
:1027B000C1EA8946630DDF0823AC01EC83A681ECF6
:1027C000918F33D7E700369623A4C1F023A0E1F020
:1027D000C167D11763EBE704239D01EE8567D1172D
:1027E00063EBE7060547A380E1EA6383080283A75A
:1027F00041EA99CF85476305FF0083A781ED89CB27
:1028000003C5B50011E503C7C500854763E5E70AC1
:1028100083C71400C9EB8547A380F400238A01EE27
:10282000A38E01F023AE01ECD5B9DC5503D6050328
:1028300023A2F1EA239DC1EE0D47A380E1EA75B71B
:10284000E30605F0238CE1E811B77687D5BB2A961D
:1028500023A6C1EAA5B70947A380E1EA79B7130522
:10286000200931B51305100919B5EFF0BF85E31044
:1028700005E0EFF0EFE485B93D8B938401EDA38093
:10288000E400238A01EEA38E01F023AE01ECBD47E4
:10289000E316F7C83DB51D47238CE1E81D477DB51C
:1028A0001305100AE9B31305300AD1B3E3080FE2A8
:1028B000A380D40025B583C7C1ECB69823A211ED3F
:1028C00011476376F700C1472386F1EC4DB362549C
:1028D000F250D2544259B259225A925A025BF24BE8
:1028E000624CD24C424DB24D21616FF0AF8B011161
:1028F0004AC883A741F026CA22CC06CE4EC623A4DE
:10290000F1ECEFF00F982A8411E583A781ED99EBA4
:10291000238001EA2285F2406244D2444249B2490E
:102920000561828003A781EC83A5C1E9BA970545BB
:1029300023A4F1ECEFE0EFFE03A781EC238AA1ECE6
:1029400003A681ED83C741ED118F23A4E1EC93F73A
:10295000F70FDDDF03C441EDFD5723AAF1F023A2F9
:10296000F1F0238001EA1374F40F6DB7797152CC42
:1029700003C811EA22D426D24AD006D64ECE56CA71
:102980005AC85EC689472A89014403A741E9630101
:10299000F8128D47630CF810935717001374170043
:1029A0003E9783D601EE83C711F183A5C1E903A643
:1029B00041ECFD16F98EB357F70003A741F0AE9630
:1029C000B29723A8D1EC23AAF1E86383E70203C7F7
:1029D00001EA11C7EFF0BFF15DED83A741E923A440
:1029E000F1ECEFE0DFFD45E903C811EA83A601ED54
:1029F000630F090091476308F9168547630FF90EC5
:102A000083A781EE23AAF1E805472380E1EA238C1E
:102A100001EE89476300F80A0D4783A741E9630186
:102A2000E80E03C5060013F8F70F83D501EE137700
:102A3000F5009318480003A6C1E933671701938492
:102A4000C1EA91831377F70FFD15A380F40023816A
:102A5000A4002386E1EAB307B600638AF61083C7B1
:102A60001600A381F400631009086309040E83D7DC
:102A70002400918305672391F4005917636CF70ACA
:102A800003C781EF23A6F1EA3369E900631B090458
:102A900023A4F1EE0145B250225492540259F24956
:102AA000624AD24A424BB24B456182800A07D5BD89
:102AB0000607C5BD03D7060023A6E1EAC167D917FB
:102AC00063FDE7008547238CF1EE630C090083A7C3
:102AD00041E901452390F6007DBFE31A09FE23A4D6
:102AE000E1EE01454DBF31CC2380E60083A701ED27
:102AF00003C71400A380E7009DBF23AA01E829B7FC
:102B00009842370600101305F6FFB70500F0F98D5F
:102B1000E98FCD8F698F23AAF1E823A6E1EA591640
:102B2000637CE6060547238CE1EEE30C09FA9CC2C0
:102B3000014595B70547238CE1EE23A6F1EA01454F
:102B400099BF2380060183C7340003C7140083A6FE
:102B500001EDC19B1183D98FA380F60083D7240098
:102B6000D207D18301BFFD5723AAF1E871BD6318D5
:102B7000090283C701EA85EB83A741F0850723A4F7
:102B8000F1ECEFE0DFE3E31805F083A7C1E983C7C9
:102B90000700A381F400D1BDE31B09F889B711E058
:102BA00042872380E600EFF09FD4E31605EE83A76B
:102BB00041F0850723A4F1ECEFE07FE0E31D05EC95
:102BC00083A6C1E903C70600A381E400E30F09E877
:102BD00083C7140001E4419B9183D98F2380F600C1
:102BE00005472380E1EA51B5797122D466C262C4F7
:102BF00003A801F003AC81EE6AC026D24AD04ECEC3
:102C000052CC56CA5AC85EC606D68549938AC1EACE
:102C100063648813050C014523AA81E9EFF01FD5F1
:102C200023A481EF59ED83A7C1EA6380071403A8A9
:102C300001F09367FC0F1367F80FE38BE7FC83C683
:102C400011EAE38736FD83A7C1E9094603D701EE00
:102C500023A8F1EC6385C60893562700FD16C2062B
:102C6000C182370E00102396D1EA2391DA0036870D
:102C7000814E7D1E39A0131703014183AE87854E17
:102C80005DCFD0431303F7FF93854700B378C601A8
:102C9000E39308FE23A8B1EC63850E0C2396E1EACA
:102CA000B7050010B3E68601FD153387E6404D8E6B
:102CB0000507D0C323A4E1EE6360E808054723803D
:102CC000E1EAB250225492540259F249624AD24A7D
:102CD000424BB24B224C924C024D456182801356BE
:102CE00017007D16420641822396C1EA2391CA004D
:102CF0003287014339A0139708014183AE8705430A
:102D000021CB83D627009308F7FF93852700E5F6AC
:102D100023A8B1EC630903042396E1EAFD5623914D
:102D2000D70083D62A00B3E686013387E64005073D
:102D300023A4E1EEE374E8F81305100B59B7336CE4
:102D4000DC0023A8B1EC239601EA23A481EFC9B5E6
:102D5000336CCC0023A8B1EC239601EA23A481EFC5
:102D600045BD368735BF328755BF225423AA81E936
:102D7000B25092540259F249624AD24A424BB24B83
:102D8000224C924C024D114545616FF03FBE4111FE
:102D900006C6EFF07FE59307100B6305F500B24020
:102DA00041018280B24023A401EE41016FF0DFE3D4
:102DB0005D7156DA83C7C1EC86C6A2C4A6C2CAC07A
:102DC0004EDE52DC5AD85ED662D466D26AD06ECE5F
:102DD0003D47637CF72C83C7C1EC3D47637DF7100B
:102DE000C1472386F1EC83C681D1238F01F063862E
:102DF00006301307C0056387E6301307F0026383CC
:102E0000E630138781D1034617009307A0036306BA
:102E1000F62A3EC483A681EA83A781F032C623A6A0
:102E2000E1F01384C1EA638D061C83C581E903C602
:102E300041EF1387E6FF3317B700BA97A38EC1F0AF
:102E400023A6F1EE6302062423A4F1ECEFE05FBDBC
:102E50005DE583D701EE239101EE6384072083A50E
:102E600041EB23A8B1EC83C70500B9CB930D500EFD
:102E70002D45930BC0056381B70315476394E700A5
:102E80009307500E03A8C1F0834608006388F60834
:102E90001307A0026384E60883D721EE03D701EE6F
:102EA00093870702C207C1832391F1EE63FBE71A00
:102EB00083A541EBBE9523A8B1EC83C70500C5FFF0
:102EC00083A6C1F081471306A0029305C005130530
:102ED000F00239A0630EC7006303B7226301A72283
:102EE0003387F60003470700850793F7F70F7DF355
:102EF0001305200429A0EFE0FFAAE30605EEB64083
:102F0000264496440649F259625AD25A425BB25B51
:102F1000225C925C025DF24D616182809D8E93B66F
:102F2000160036872301D4003386D500B307E800A6
:102F300083C70700034606009308F0021303E0026C
:102F4000214E930E0002130F1700638EC702F9C7BC
:102F50006386770D6384170D639D670C6304C70157
:102F6000631AD6152301E401A146034724003386E2
:102F7000D50003460600B307E80083C70700130F18
:102F80001700E396C7FC050785061377F70F2301A3
:102F9000E40093F6F60FE39AA6FC429783470700F6
:102FA000A301F40083C7B500A18BE39707EE238C40
:102FB00001EE83A701EDA24583D6A70103C611EA5E
:102FC0000D4723A4D1EA6318E60003D7470142075F
:102FD000D98E23A4D1EA03473400630B072403C727
:102FE00081EF631707240347240083A7C1F0050777
:102FF000BA9723A6F1F0B24783A781F0E39706E2E0
:1030000003A741EA9376F70F958F1377F70FA38EF7
:10301000E1F023A6F1EEE31907E25DB51307000224
:10302000631EE6021D47E36DD7F603C78500E3097B
:10303000C7F6A301F4001307A002E39FE7E483C7E8
:10304000B500A18BE39A07E483A7C1ED6389071458
:1030500063C10712FD1723AEF1EC3DBDA301F400DF
:1030600025BD03C7D1F183A7C1EE7D17850713776F
:10307000F70F23A6F1EEA38EE1F0E31707DCA247DA
:1030800083A681EAE38E06E2014523AAD1E8EFF0A8
:10309000FF8DE31605E683C781EFE39307E283A67E
:1030A000C1EAA24723A4D1EAB9B7EFF06FC1E304A4
:1030B00005D2B1B5A3016400C5B393072004E3FAB8
:1030C000D7D41387B1D123A6E1F09387B1D189A0DA
:1030D000D84F23AEE1EC91E67D57A38EE1F023AE0D
:1030E00001EC83C7C1EC3D476378F718D1472386CD
:1030F000F1EC83C781EF63990716014509B5130504
:10310000300BF5BB138791D123A6E1F0938791D1C2
:1031100083C611EA0D476384E60603C707003EC471
:1031200036C623A401EA83A781F08146E31B07CEBC
:1031300083A641EA03C611F1A24513F7F60F998F52
:103140003317C700094623A4C1EA238AD1EEB24649
:1031500023A4F1F023AEE1EC894623A4D1EE23AC05
:1031600001EAA38E01F0C9472386F1EC1305100490
:1031700079B3EFE0EF8883A7C1ED2D45E1BD83A6CC
:1031800041EA83C707003AC423A4D1EA89C73EC6EF
:1031900083A781F079B17D5723AEE1EC7DBF238613
:1031A00001EA83A7C1F00147130500022148154E2B
:1031B00015539308E002AD451DA82300D60083C730
:1031C000C1EA83A6C1F099EB03C606006318C601E5
:1031D0002380660083C7C1EA83A6C1F0850793F701
:1031E000F70F2386F1EAB6970507630DB70283A6AA
:1031F00001ED3E86BA9683C60600E387A6FEE31E6F
:1032000007FB2380170183C7C1EA83A601ED03A64C
:10321000C1F0850793F7F70F2386F1EA83C686008E
:103220003E9661BF238007008547238CF1EE51B3A2
:1032300003C7B70023A4D1EE23AC01EAA38E01F0AB
:10324000418BE30707E883C7C1ECFD5623AED1EC01
:103250003D47637EF700CD472386F1EC83C781EFBE
:1032600013051004E38D07C81305300449B9EFE0D6
:103270006FF3E31605C8DDB7EFE0CFF2E31105C841
:103280008DBD83A681EA011122CC26CA06CE4AC88A
:103290004EC652C456C2B9CA938781D183C511F1B3
:1032A000D84303C6D1F183A781D13357B700B30503
:1032B000C74063FDB70423A4D1EE03C741EF63EE1B
:1032C000E70421A883A781D103C741EF83A681EE3C
:1032D000998F23ACF1D063E2E704014523AAD1E83A
:1032E000EFF0CFE819E983C781EFE9DFFD57A38E3F
:1032F000F1F0FD5723ACF1D00145F2406244D244D5
:103300004249B249224A924A05618280B297998F16
:1033100023ACF1D083A681EE4DB783C581E903A626
:1033200081F01387E6FF3317B700B386C7003697DF
:10333000A38EF1F023A4E1EC23ACE1D0014575BFED
:10334000411106C622C4EFF03F8A11CD9307100B3E
:103350006306F500B24022444101828023A401EEBD
:10336000EFF09F8865F9EFF08FD86DF583A781EEB8
:1033700003A7C1EE23A4F1EA23A4E1ECEFE04FEAB6
:1033800071F903D621EE83A741EB03A781EA22441A
:10339000B29793560701239DE700B2400546D0CF70
:1033A000239AD70023A8F1EC41016FE0EFF141111E
:1033B00083D7A1EF22C423A6A1EA06C6014589E767
:1033C000B24022444101828003A701EFBA9723A4AF
:1033D000F1ECEFE0EFE46DF503A741EB83A6C1EA62
:1033E00022448327871EB240B6972324F71E41014B
:1033F0006FE08FED83C7C1EC238F01F04D4763640D
:10340000F7000145828003A7C1EE411106C623A43F
:10341000E1ECEFE0EFE009ED03D721EE83A741EB0C
:103420000145BA9703C7B70023A8F1EC418B01C748
:10343000B2404101828003A7C1EDB240D8CF410123
:103440006FE08FE8411122C483C7C1EC06C645472F
:1034500093F7F70F6372F7084947638BE70483C755
:10346000C1EC4D4793F7F70F6361F702238F01F02B
:1034700083C7C1EC3D476378F702C1472386F1EC6F
:103480000145B2402244410182805147638CE704E8
:1034900083C7E1F1F1DFEFF0FFF565F583C7C1EC1C
:1034A0003D47E36CF7FC2244B24041016FE08FCF0F
:1034B00003C711EA8D47E304F7FA83C581E903A640
:1034C00081F083C741EA05473317B700B297238AD3
:1034D000E1EE23A4F1F061B7B24022441305400BA2
:1034E0004101828083C781D1C5F749B7011122CC40
:1034F00083C7C1EC06CE26CA4AC84EC64947637F79
:10350000F70883C7C1EC3D476370F708C1472386BE
:10351000F1EC03A7C1EE23A4E1ECEFE06FD025E9C5
:1035200003D721EE83A741EBBA9715572380E70015
:10353000EFE08FD929ED83A781EA23A6F1EAA1CB99
:103540009386F7FF23A4D1EA23A401EE19A083A751
:10355000C1EA054523AAF1E8EFF04FC10DE983A7C1
:1035600081EE03C781EF850723A4F1EE6DD3EFF061
:103570000FB811ED03A581EE6244F240D2444249F6
:10358000B24905616FF0BFE2EFE0CFC159D1F2401F
:103590006244D2444249B24905618280EFF05F81C2
:1035A0002DD1F2406244D2444249B2490561828041
:1035B000797122D406D626D24AD04ECE52CC56CAE3
:1035C0005AC85EC6EFF0CFFEA38EA1F0630F0510C0
:1035D00093072004630DF500B2502254925402590F
:1035E000F249624AD24A424BB24B4561828083D64D
:1035F00021EE83D701EE03A781EA63E0F6086319A1
:10360000071083A741EAA38EF1F0130A500E83A797
:10361000C1EEFD1723A6F1EE23A4F1ECEFE04FC0BD
:1036200045FD03D601EE239101EE0DCA83A541EBC2
:1036300083C70500638847259307000201A883C656
:1036400006004207418363864603BA87B386F500C6
:1036500013870702E3E5C7FE2391F1EE83C7D1F19B
:10366000FD1793F7F70FA38EF1F0D5F31305200B99
:10367000A5B703A781EA2391F1EE23A4E1EEEFF0D1
:10368000AFD69307100B6300F50839F5EFF02FA6BE
:1036900021F583A781EE7D5523A4F1EAEFF03FD118
:1036A00005FD03A7C1EE23A4E1ECEFE06FB7E3153E
:1036B00005F283D621EE03A741EB8147369723A875
:1036C000E1ECA945930800027D4801A8230007000A
:1036D0006380061103A701ED85073E9793F6F70F68
:1036E000E3E6F5FE23001701F5B7EFF03FE0E31541
:1036F00005EE03A781EA23A4E1EEEFF0EFCE9307F6
:10370000100BE314F5F823A401EEEFF0EFCDB5BFF5
:10371000014523AAE1E8EFF06FA5E31F05EA83C79F
:1037200081EF03A781EAB1DB23A4E1EEEFF0CFCB79
:103730009307100B6309F508E31005EA83A781EAF4
:10374000094523AAF1E8EFF06FA2E31705E8EFF0CF
:103750000F9AE31305E883D601EE89CE03A641EB69
:1037600081473307F6009107C20723200700C18372
:10377000E399D7FE83A781EE03C681E983A681F092
:10378000F91703C741EFB397C700B697A38E01F0AF
:1037900023A4F1EC239101EE23A6F1EE2386E1EAC6
:1037A00019EFE5A083C7C1EA03A781ECFD17050760
:1037B00093F7F70F23A4E1EC2386F1EAF9C7EFE0D2
:1037C000AFB06DD111BD23A401EEEFF0EFC1ADB7E5
:1037D00003A601ED8D6793871702231CF60085472A
:1037E0005CCE83A7C1F09308E0022D4303C7070016
:1037F000B305A60005051375F50F09CF93861700CD
:10380000630917052380E50023A6D1F06304650052
:10381000B687E9BF83A781EA13D70701231DF60006
:10382000231AE600EFE04FAAE31805DA83A681EA3F
:1038300003C7C1EC23A4D1EE23AE01EC23AC01EA13
:10384000A38E01F0BD4663F3E60251472386E1EC07
:1038500061B323A6D1F003C717009386270023A6E0
:10386000D1F02304E6002545B68749B72254B2506B
:1038700092540259F249624AD24A424BB24B4561D4
:103880006FE04F9203A781EACDBB7D55EFF03FB2C9
:10389000E31405D403A781EACDB383C7C1EC49473C
:1038A000637FF70A03A7C1EE411106C623A4E1EC2A
:1038B000EFE00F9755E183D621EE83A741EB138705
:1038C00081D1B69783C5B700834687002304B7002C
:1038D00023A8F1EC9305F00F81486385B600A3851A
:1038E000D700854883D66701035867002313D700A4
:1038F000C166239601EBFD166305D800239B0701E3
:10390000854883D687010358470003A3C7012312C4
:10391000D7004167239601EB7D1783A681D163040D
:10392000E802239C070123A6D1EA23AC61D07D578E
:103930006387E600D4CF23AED1EC238F01F0B240F1
:1039400041016FE06F9823A6D1EA23AC61D07D5787
:10395000E392E6FEE39508FEB24041018280130542
:10396000400B828003A781EAD5459337170023A433
:10397000E1EEB307F04023AC01EA5145A38EF1F02C
:103980006FE02F9B03C7C1EC411106C6D546638A81
:10399000E60083C7C1EC5147631FF702EFF09FFCBD
:1039A0000DED03A581EB83A781D103A6C1ED93851E
:1039B00081D1C8C123ACF1EA6375F60023ACC1EA3A
:1039C000B28783C611F1B240B3D7D70023ACF1D090
:1039D00041016FF01F8B1305400BB2404101828003
:1039E00003C7C1EC397106DE22DC26DA4AD84ED68E
:1039F00052D456D25AD05ECE62CC66CA6AC86EC65F
:103A0000D546638DE60083C7C1EC51471305400BD3
:103A10006318F712EFF01FF56314051283D781D1F5
:103A200083C6D1F1938D81D12394FD00239C01D0D5
:103A30001307F00F6385E610416A130BFAFF6380EA
:103A4000071003A7C1ED83A781EB63FAE70EEFE050
:103A50000F8C83A7C1ED63E34701DA8703D78D009D
:103A6000C207C18363F3E7003E8783D701EE03A655
:103A700081EBBA86938CF7FFB3FCCC00C20C93DCCD
:103A80000C01636FF70C639D0C0C83D681D183A569
:103A90004D00B69593F63500F9E203C511F183C7E1
:103AA00041EF03C6D1F13357A7404207918F4183BD
:103AB00093F7F70F6373F700BA87939C070193DCC2
:103AC0000C0113FCFC0F6285EFD0EFDB35E983C7F7
:103AD00011F103D68D0003C8D1F1B397FC00939682
:103AE000070103A581EB83D581D1C182B3FC6701B6
:103AF000B307D64033070C01C20703C641EF137763
:103B0000F70FAA9CC183AE96A38EE1F023AC91EB94
:103B10002394FD00239CD1D0E363C7F283A781EEF9
:103B2000014523AAF1E8EFE07FE419E983C781EFBB
:103B3000E9EB83D78D00A38E01F0E39407F00145F4
:103B4000F2506254D2544259B259225A925A025BEC
:103B5000F24B624CD24C424DB24D21618280BE8606
:103B6000B38C974193970C01C18363F3F600B68C35
:103B7000C20C93DC0C01EFD0BFEA79F103D601EE61
:103B800083A681EB03A741EB83D581D183A74D00A9
:103B90007D163375D6002A97AE9763870C0213867D
:103BA000FCFF4206418205063E9605078346F7FF65
:103BB0008507A38FD7FEE31AF6FE03D601EE83A690
:103BC00081EB83D581D17D1683D78D00E696E6956E
:103BD000B3879741C207C18323ACD1EA2394FD0088
:103BE000239CB1D0F18EE39C06E403C7D1F183C6D8
:103BF00041EF05071377F70FA38EE1F0E370D7F2DB
:103C00003DBD83A781EB7D57A38EE1F023AEF1ECA0
:103C100005BF39715AD083C7C1EC06DE22DC26DA33
:103C20004AD84ED652D456D25ECE62CC66CA6AC844
:103C30006EC65547630BF70083C7C1EC5147631F3E
:103C4000F726EFF03FD26316051A03D781D193848C
:103C500081D12394E40009E783C7E1F16398072643
:103C6000239C01D0054C6301071803C7D1F19307CA
:103C7000F00F6312F70683A781EA6385072283C7E3
:103C8000C1EC49476317F70003C711EA8D47631F6B
:103C9000F72683A781EE23ACF1EAEFF04F8F631A8A
:103CA000051403A781EB094523AAE1E8EFE01FCC47
:103CB0006311051403A7C1E983A741EB6303F72050
:103CC0007D55EFF0CFEE6316051283A7C1EDA38EED
:103CD00001F023ACF1EAEFD09FE383D501EE83A698
:103CE00081EB03C7D1F183C741EF03C811F11385FD
:103CF000F5FF3376D500998F420603D784004182C1
:103D0000B3970701918F63F3E7003E87AE8D636140
:103D1000B710630E0610B38DC540C20D93DD0D01C3
:103D2000636CB719EFD0DFCF69E583D501EE83A6C9
:103D300081EB1385F5FF03A741EB03D681D1DC406E
:103D4000758D93950D012A97B297C18163840D02F9
:103D50001386F5FF4206418205063E96850783C617
:103D6000F7FF0507A30FD7FEE39AC7FE83A681EBF3
:103D700003D681D183D78400B69D2E968D8F23AC38
:103D8000B1EB2394F400239CC1D0EFD0FFD335E1F5
:103D900003A781EB83A6C1ED63F6E60023AEE1EC59
:103DA000238F81F183D701EEFD17F98F95EB83C740
:103DB000D1F103C741EF850793F7F70FA38EF1F019
:103DC00063E0E70203A781EE014523AAE1E8EFE003
:103DD000FFB905E183C781EFF9CBFD57A38EF1F061
:103DE00003D78400E31307E883C701EA0145639F13
:103DF000070EF2506254D2544259B259225A925A82
:103E0000025BF24B624CD24C424DB24D216182803A
:103E1000B38DC540C20D93DD0D016373B701BA8D3B
:103E2000E31206F083A7C1EDE3F7F6F0E5BD83D713
:103E300081D1CC40BE9593F73500EDF7335A070199
:103E4000937DFA0F6E85EFD0CFAD45F583C711F1A5
:103E500003D7840083C6D1F1B317FA001396070184
:103E600083A881EB03D881D14182118FEE9642075E
:103E700003A5C1ED93F6F60FC69741834296A38E34
:103E8000D1F023ACF1EA2394E400239CC1D0637603
:103E9000F50023AEF1EC238F81F183C741EFE3E41A
:103EA000F6DC0DB7EFF0CFC9E30C05E099B703D707
:103EB0008400A38E01F045BBBA8DADB51305400B50
:103EC0000DBFEFE0DFA2E30D05DE25B76254F2502F
:103ED000D2544259B259225A925A025BF24B624C66
:103EE000D24C424DB24D21616FF0CFD06254F250AE
:103EF000D2544259B259225A925A025BF24B624C46
:103F0000D24C424DB24D21616FE07F9E1305100BE4
:103F1000CDB53287B6882A882E83639C061A9567AA
:103F20009387876663F8C50AC166637BD6089336B4
:103F3000061093B616008E06335ED600F2979C23C9
:103F4000B69793060002638DD7009D8E3393D500FC
:103F5000B357F5003317D60033E367003318D500A5
:103F600013550701B357A302B34507089356080139
:103F70003373A3023386F5024203B3E6660063F8A7
:103F8000C600BA9663F4C60063F3E604FD17918E8B
:103F900033D6A60233480808B3F6A602B385C50295
:103FA000C2063368D8006378B8003A986374B800E2
:103FB000637FE8107D16C207D18F3E85C68582805B
:103FC000370E0001E146E379C6F7C146B5B7F917E8
:103FD000BA9675BF814609CAC166637CD60493361A
:103FE000061093B616008E06B358D600C6979C23CB
:103FF000B697930600026395D7043386C54085487B
:1040000013550701B357A602B34507089356080195
:104010003376A6023383F5024206D18E63F866003A
:10402000BA9663F4660063F1E60AFD17B38666404C
:1040300085B7B7080001E146E37816FBC1466DB7C6
:104040003388F64033170601B3D6F500B395050162
:10405000B357F5003318050113550701B3D8A6026D
:1040600033460708CD8FB3F6A602330316039395A4
:10407000060193D60701CD8E63F86600BA9663F405
:10408000660063FDE602FD18B3866640B3D5A6025E
:10409000B3C70708B3F6A6023306B602C206D58F29
:1040A00063F8C700BA9763F4C70063FCE700FD1527
:1040B000C2083386C740B3E8B80099B7F918BA9672
:1040C000E1B7F915BA97EDB7F917BA9685B779162A
:1040D000DDB563E4D512C16763FCF60293B7061041
:1040E00093B717008E07156733D8F6001307876656
:1040F00042971823130800023E9763120703B33751
:10410000C50093B71700B3B6B600D58F814875B513
:1041100037070001E147E3F8E6FCC147E9B7330898
:10412000E840B358E600B3960601B3E8D80013DEC2
:104130000801B3D6E500B3D7C60333C30808B39567
:1041400005013357E5004D8F33160601B3F6C6035C
:10415000B30EF3029395060193560701CD8E63F8D3
:10416000D601C69663F4D60163F31609FD17B3862C
:10417000D641B3D5C60333470708B3F6C6033303A6
:10418000B302C206558F6378670046976374670071
:1041900063721707FD15C207CD8F93D80701B3C50A
:1041A000050833076740334306084182338E6502B2
:1041B0003383680293560E01B385C5029A95AE9675
:1041C000B388C80263F466004166B29813D606014C
:1041D0004696636CC700C206334E0E0833150501C0
:1041E000F296E375D5F2E313C7F2FD1705B7F91799
:1041F000C696B5BFF915469779BF8148814775BB0B
:1042000039713EDA83A7C18032D436D62ED23AD85D
:1042100042DC46DE8C4754102A863E8506CE36C6E2
:10422000B529F240216182801C51011122CC26CA9D
:104230004AC806CE4EC60045AA842E8999E3EF00EF
:1042400050435E24A18B99C31C48B5E3A285268503
:10425000292231CD7D55F2406244D2444249B249CF
:104260000561828063D80700184C63CCE70293870E
:1042700065FF85CB1C401387170018C08CA3050968
:104280001C4483450900FD171CC4E9FD63D30702E4
:104290002286A94526851528FD57E30DF5FA2945FF
:1042A0005DBF228626851520E31B35FD65B7FD59C8
:1042B000C1BF1C401387170018C0294798A3C5B772
:1042C000AA8503A5C1806FF03FF6011122CC26CA52
:1042D0004EC606CE4AC8AA84AE89328409C51C518E
:1042E00099E3EF0010391C4C1CC45E24A18B99C3C8
:1042F0001C4891EFA28526858D2011C97D59F24079
:104300006244D244B2494A854249056182801C48D0
:1043100008401D8D5C486347F500A2852685EF00A7
:10432000D02269FD1C44050513F9F90FFD171CC4C3
:104330001C401387170018C0238037015C4863882E
:10434000A7005E24858BC5DF930769FFCDFBA2859F
:104350002685EF00901F45D555B7411126C2AA8486
:1043600003A5C18022C406C62E8409C51C5199E349
:10437000EF0030308317C40013F7870031E313F7E1
:10438000070101EB254798C093E707045EA47D551C
:10439000B5A013F7470015C34C5889C993074404C7
:1043A0006384F5002685BD28232A04025E2418486C
:1043B0002322040093F7B7FD18C093E787005EA49B
:1043C0001C4881EF5C441307002093F7072863869D
:1043D000E700A2852685EF0070368317C40013F727
:1043E000170015C35848232404003307E04018CCB5
:1043F0001848014501E713F7070859F7B24022446E
:1044000092444101828013F72700814611E354480A
:1044100014C4F9BFAA87982185078505A38FE7FEF5
:104420007DFB8280D1CD83A7C5FF011122CC06CEB2
:104430001384C5FF63D307003E942AC6CD2A83A701
:10444000C184324589EB2322040023A6818462447F
:10445000F2400561F1AA637DF4001040B306C40088
:104460006396D7009443DC43B29614C05CC0F1BF9E
:104470003E87DC4399C3E37DF4FE14433306D70043
:10448000631F86001040B29614C33306D700E39032
:10449000C7FC9043DC43B29614C35CC34DBF637545
:1044A000C400B1471CC165B71040B306C400639691
:1044B000D7009443DC43B29614C05CC040C341BFF4
:1044C0008280411122C483A7818426C24AC006C6C5
:1044D0002A89AE8491E78145EF00704723A4A18427
:1044E000A6854A85EF00B046FD54631A95007D54B9
:1044F000B240228522449244024941018280130441
:1045000035007198E30685FEB305A4404A85EF00A7
:104510001044E31F95FCE1BF011126CA93843500C6
:10452000F198A104B1474AC806CE22CC4EC652C467
:10453000B3F4F40A2A8963C4040063FDB4002320A1
:10454000F9000145F2406244D2444249B249224A4C
:1045500005618280E92883A7C1843E8431E8A6856D
:104560004A85EFF01FF6FD572A846310F50C03A46B
:10457000C184A287D9EB45C4032A040081454A853A
:10458000229AEF00D03C631CAA081C404A859D8CEF
:10459000A685EFF01FF3FD576303F5081C40A697AF
:1045A0001CC083A7C184D84325E723A6018415A096
:1045B0001440858E63C806042D47637DD70204C06E
:1045C000330794006396870223A6E1845C4014C3FA
:1045D0005CC34A85B1281305B40093074400619970
:1045E0003307F540E300F5F63A94898F1CC099BF74
:1045F000D8C3E9BF58406395870023A6E184D1BFA3
:10460000D8C3C1BFA287404091BF3E84DC439DB761
:104610003E87DC43E39E87FE232207005DBFB14750
:104620002320F9004A85292029BF04C15DB7828073
:1046300082801C46FD171CC663DA0700184E63C54E
:10464000E700938765FF99E36FF03FC81C422E8512
:104650001387170018C28CA38280011122CC26CAAE
:104660004AC84EC652C406CEAA892E8A3284B304E2
:10467000D6007D5963149400014509A80C20528688
:104680004E85EFF01FFB0504E31625FFF240624460
:10469000D2444249B249224A05618280717122D5D1
:1046A00026D34ECF52CD06D74AD156CB5AC95EC774
:1046B00062C5AA89AE843284368A09C51C5199E341
:1046C000EF00207BDE24A18BF9C39C48E9C393074C
:1046D0000002A30CF102956A9307000352CE02DA9E
:1046E000230DF1027D5A938ACA5C294BA28B83C7A2
:1046F0000B00333CF0009387B7FDB337F000337CF9
:10470000FC0063180C0AB3868B40638E8B002286F4
:10471000A6854E8536C6EFF05FF4630F4519D25774
:10472000B246B6973EDA83C70B0063870718138437
:104730001B0002D002D652D202D4A301010682DCB1
:104740000C2015465685EF00501182579306140031
:104750003DE113F7070109C713070002A301E106B2
:1047600013F7870009C71307B002A301E106102061
:104770001307A0026308E604B257814625461820B5
:10478000130707FD6374E608B9C63ED6A9A0A6853F
:104790004E85EFF09FBC05DD7D55BA502A549A54E2
:1047A0000A59FA496A4ADA4A4A4BBA4B2A4C4D61CD
:1047B0008280850B2DBF33055541B397A7283ED086
:1047C0003684BDBF724713064700184332CE634894
:1047D00007023AD6368418209307E0026319F704DB
:1047E00018309307A0026319F702F24709041387F0
:1047F00047009C433ACEB3E7470B3ED20DA83307A0
:10480000E04093E727003AD63ED0E9B7B387670385
:1048100005048546BA97A5B7050402D28147A54687
:104820001820130707FD63F1E606E3180CFC0C20C3
:10483000956B0D4613854B5DEF00300209CD825715
:10484000938B4B5D33057541130700043317A700A5
:10485000D98F05043ED00C20156519461305855DDA
:10486000230CB102EF00607F39CD930700009DE774
:104870000257F2471377071011CF91073ECED25758
:104880000504CA973EDA9DB5B38767030504054C56
:10489000BA9779B79D07E19BA107CDB791667808D4
:1048A0009386A66526860C104E8597000000E700CB
:1048B00000002A89E31545FDDE2493F70704E39DF4
:1048C00007EC5255D9BD916678089386A665268671
:1048D0000C104E853122F1BF79714ECE9C49BA89B8
:1048E000984522D44AD05AC85EC606D626D252CCA3
:1048F00056CAB3E7E70A1CC203C735042A8B2E84C5
:104900003289B68B19C385071CC21C4093F7070276
:1049100091C78327090089072320F900044099885B
:1049200091E8130A9401FD5A5C4403270900998F0A
:1049300063CBF4041C408346340493F70702B33678
:10494000D000BDE713063404DE855A858299FD57F1
:104950006302F5041C4011478144998B6398E7007A
:104960004444832709009D8CB3E4040A1C4418487E
:104970006354F700998FBE94014969047D5A639886
:104980002405014509A885465286DE855A85829907
:10499000631E55017D55B250225492540259F2497A
:1049A000624AD24A424BB24B456182808504ADBF18
:1049B0003307D40013060003A301C70403475404BC
:1049C00093871600A2978906A381E704A5BF8546B1
:1049D0002286DE855A858299E30E45FB050945B797
:1049E000397122DC26DA52D456D206DE4AD84ED6A7
:1049F0009C2DB684930680072A8A2E84B28A63EEA1
:104A0000F600930620061386350463EBF6006386F2
:104A1000071A930680056384D7161309240435A06A
:104A20009386D7F993F6F60FD545E3E8D5FE95655D
:104A300093858576B3C6B620944282861C431309BB
:104A40002404938647009C4314C32301F404854740
:104A500041AA1C40084393F607089305450085C208
:104A60001C410CC3956663D807001307D002B30737
:104A7000F040A301E4049386065E294789A093F6DB
:104A800007041C410CC3F9DE93975760E1BF0C404B
:104A9000144313F505089C42910611E593F50504AE
:104AA00099C1B3C7070814C30C2C95661307F00609
:104AB0009386065E639EE50C2147A30104044C40E7
:104AC0000CC463C805000840DD8D32896D9908C0AB
:104AD00091CD3289B3F5E7027D19B6958C2123007B
:104AE000B900BE85B3D7E702E3F6E5FEA147631E32
:104AF000F7001C40858B91CB58401C4863C7E700EA
:104B000093070003A30FF9FE7D193306264110C851
:104B10002687D6867008A2855285EFF0FFDBFD5907
:104B20006314350D7D55F2506254D2544259B25936
:104B3000225A925A216182801C4093E707021CC0CE
:104B40009566930780079386465FA302F4040C40A2
:104B5000084313F805081C4111056318080013F8F1
:104B6000050463040800B3C7070808C313F715005A
:104B700001C793E505020CC099C741473DBF956643
:104B80009386065ED9B718401377F7FD18C0F5B7BE
:104B9000294725B714401C434C4813F806081385D1
:104BA00047006306080008C39C438CC339A008C3B0
:104BB00093F606049C43F5DA8EA323280400328979
:104BC00081BF1C43504081459386470014C303A90D
:104BD00007004A85592101C53305254148C05C407D
:104BE0001CC8A30104042DB714484A86D6855285F3
:104BF0008294E30935F31C40898B8DE74844F247E2
:104C00003365F50A0DB78546D685528532C682943E
:104C1000E30A35F1324605095C447247998FE34453
:104C2000F9FEE9BF014913069401FDB78397C5005A
:104C3000011122CC26CA06CE4AC813F78700AA84DF
:104C40002E845DEFD8416345E000B8416358E00A27
:104C500058544DC703A904009396370123A00400BC
:104C600063DC060670485E24918B99C75C401D8EFC
:104C70005C5899C33C401D8E5C540C50814626857F
:104C800082977D578317C400631CE50094407547E5
:104C9000636FD7083707402005073356D74841CA06
:104CA00018482322040018C01397370163580700DF
:104CB000FD576314F5009C4091E368C84C5823A04D
:104CC00024018DCD930744046385F5002685EFF01C
:104CD0006FF5232A04021DA00C5001468546268547
:104CE0000297FD572A86E310F5F89C40ADDF138745
:104CF00037FE19C3A9179DEB23A02401014525A860
:104D000090496DDE94418D8B90C13389C640014737
:104D100091E3D84918C4E35320FF1C540C50CA86B1
:104D2000268532C682973246634DA0005E2493E703
:104D300007045EA47D55F2406244D24442490561B5
:104D400082802A963309A940F9B79C498DCB01117D
:104D500022CC06CE2A8411C51C5181E72EC6112A09
:104D6000B2458397C50099C722856244F240056128
:104D70006FF0DFEBF240624401450561828001453E
:104D80008280411122C406C62A844EA572A5232022
:104D900005002322050023240500232205062328DD
:104DA0000500232A0500232C050021468145130513
:104DB000C505EFB06FC59567938747FB5CD09567D6
:104DC0009387E7FD1CD49567938747025CD495676A
:104DD00093874705B24000D01CD82244410182800D
:104DE000370600209565370500201306C6449385D5
:104DF000A5D41305054051A84C41411122C406C653
:104E0000938781D52A846384F500EFF01FF40C4466
:104E1000938701DC6385F5002285EFF01FF34C4496
:104E2000938781E26388F50022852244B2404101E4
:104E30006FF0BFF1B2402244410182809567411179
:104E4000938707DE01469145138581D506C623A8C1
:104E5000F184EFF01FF30546A545138501DCEFF063
:104E60005FF2B2400946C945138581E241016FF006
:104E70005FF11C5191EB9567938787DF1CD183A766
:104E8000018599E36FF09FFB8280797122D44AD02B
:104E90004ECE52CC56CA06D626D22A8AAE8A0144B3
:104EA0000549FD590C464442FD1463DE04001042DE
:104EB00075FAB2502285225492540259F249624A3C
:104EC000D24A45618280DE25637DF9008397E50043
:104ED00063893701528532C62EC4829A3246A24572
:104EE000498C93858506C9B71971A2DC2E848395F8
:104EF000E500A6DA86DEB28463D005025E2493F76D
:104F000007088DEB13070040F65066549CC298C00A
:104F10000145D65409618280300836C64122B24626
:104F2000E34E05FCF2473D67F98F7977BA9793B75F
:104F30001700C9BF814713070004F9B7DE2579714F
:104F400022D406D626D2898B2E8481CF930774046F
:104F50001CC01CC885475CC8B2502254925445619D
:104F6000828074083008AA84EFF01FF8E245268595
:104F70002EC6EFF06FDA8317C400B24509E913F7C4
:104F8000072079FBF19B93E727005EA4C1B793E765
:104F900007085EA4F24708C008C84CC8D5DF8315CF
:104FA000E400268515224DD95E24F19B93E7170076
:104FB0005EA45DB7411122C42E848395E50006C628
:104FC0008522634905007C48AA977CC8B2402244E8
:104FD000410182805E249397C7485EA4C5BFDE2549
:104FE000011122CC26CA4AC84EC606CE93F7071036
:104FF000AA842E843289B68991C78395E5008946B3
:105000000146C5285E248315E400F2409397C74803
:105010005EA46244CE864A86B24942492685D2447D
:105020000561A1AA411122C42E848395E50006C61C
:10503000C9207D578317C4006319E5009397C748BB
:105040005EA4B2402244410182809397C7285EA4A7
:1050500068C8C5BF8395E50029A893F5F50F2A9682
:105060006314C500014582801C21E38EB7FE05054F
:10507000C5BF411122C426C2AA842E8506C623AA12
:1050800001842522FD576316F50083A7418591C34E
:105090009CC0B2402244924441018280411122C40A
:1050A00026C2AA842E85B28506C623AA018421229F
:1050B000FD576316F50083A7418591C39CC0B2409C
:1050C0002244924441018280411122C426C2AA8412
:1050D0002E8506C623AA0184ED20FD576316F50030
:1050E00083A7418591C39CC0B240224492444101B0
:1050F0008280411122C426C2AA842E85B2853686BA
:1051000006C623AA0184E120FD576316F50083A794
:10511000418591C39CC0B2402244924441018280A7
:10512000411122C426C2AA842E85B285368606C6BF
:1051300023AA01845D20FD576316F50083A74185EE
:1051400091C39CC0B24022449244410182804111EB
:1051500022C426C2AA842E8506C623AA0184EFC0D3
:10516000EFF6FD576316F50083A7418591C39CC0F8
:10517000B2402244924441018280411122C426C29D
:10518000AA842E85B285368606C623AA0184EFC07E
:105190000FF0FD576316F50083A7418591C39CC0AE
:1051A000B24022449244410182801307800523AA21
:1051B000E1847D5582801307800523AAE1847D5513
:1051C00082801307800523AAE184014582801307AA
:1051D000800523AAE1847D5582801307800523AAD8
:1051E000E1847D55828000004572726F723A2530ED
:1051F00032780D0A0000000055534220486F737446
:10520000202620554469736B204C696220496E69E1
:105210007469616C697A6174696F6E2E200D00008B
:1052200000000000555342485320486F73742049D2
:105230006E69740D000000005B646961675D205554
:10524000534248535F486F73745F496E6974204FCF
:105250004B0D0000554469736B206C69627261727A
:105260007920496E697469616C697A6174696F6EDD
:105270002E200D00456E756D3A0D00005B656E7554
:105280006D5D20636E743D2575207072652D7265AD
:105290007365740D0A0000005B656E756D5D2070AE
:1052A0006F73742D72657365740D00005B656E75A8
:1052B0006D5D206174746163682D6C6F6F70206424
:1052C0006F6E6520693D257520733D25750D0A00BB
:1052D00047657420446576446573633A2000000096
:1052E0005B656E756D5D20476574446576446573D6
:1052F0006320733D253032780D0A00004572722814
:1053000025303278290A00005365742044657641BF
:105310006464723A200000004F4B0000476574201F
:10532000436667446573633A200000005365742048
:105330004366673A200000005553422044657620BA
:10534000496E2E0055534220506F72742025303222
:10535000782044657669636520456E756D65726178
:1053600074696F6E20537563636565640D0A000090
:1053700055534220506F7274202530327820446596
:105380007669636520456E756D65726174696F6ECF
:105390002045525220253032782E0D0A00000000A0
:1053A00055534220506F7274202530327820446566
:1053B00076696365204F75742E0D0A005761697414
:1053C000204469736B2052656164792E2E2E0D0086
:1053D0004469736B20526561647920436F64653A58
:1053E000253032782E0D0A0043483130334469733A
:1053F0006B5374617475733A253032780A0000007B
:105400004E6F7420526561647920436F6465203A61
:10541000253032782E0D0A00434831303344697309
:105420006B5374617475733A253032782E0A00001C
:1054300043485256334469736B5374617475733ABD
:10544000253032780D0A00002F4E455746494C450D
:105450002E43000046696E64204E6F2046696C65DD
:1054600020416E64204372656174650D0000000088
:105470004279746557726974650D00004E6F7465EA
:105480003A200D0AD5E2B8F6B3CCD0F2CAC7D2D4CE
:10549000D7D6BDDACEAAB5A5CEBBBDF8D0D055C5FE
:1054A000CCCEC4BCFEB6C1D0B42CBCF2B5A5D1DD07
:1054B000CABEB9A6C4DCA1A30D0A0000B3C9B9A62F
:1054C000D0B4C8EB2025303258B4CE0D0A0000000D
:1054D0004D6F646966790D00436C6F73650D000054
:1054E000B6C1B3F6B5C4C7B02564B8F6D7D6B7FB16
:1054F000CAC73A0D0A0000002530325820000000CB
:105500000D000000CEC4BCFED2D1BEADBDE1CAF8D4
:105510000D0000005B626F6F742025755D20727353
:10552000743D3078253038780D0A00005B6661756F
:105530006C745D206D6570633D25303878206D6337
:10554000617573653D25303878206D7476616C3DEA
:10555000253038782073703D253038782072613DD1
:10556000253038780D0A000053797374656D436CEB
:105570006B3A25640D0A000053797374656D436FAF
:105580007265436C6B3A25640D0A000043686970CC
:1055900049443A253038780D0A00000055534248F6
:1055A0005320484F53542054657374204558414D3F
:1055B0002025640D0A0000006C6962207669736919
:1055C0006F6E3A253032780D0A000000232D302B03
:1055D00020000000686C4C00656667454647000087
:1055E0003031323334353637383941424344454619
:1055F00000000000303132333435363738396162DB
:10560000636465660000000008090A0B0C190D1B95
:105610000E1D0F1F10211123122513271415161804
:105620001A1C1E2022242628000000000000000072
:10563000010203040607080908090A0B0C190D1BCF
:105640000E1D0F1F102111231225132714151618D4
:105650001A1C1E2022242628000000000000000042
:105660000102030406070809000102020303030301
:1056700004040404040404040505050505050505E2
:1056800005050505050505050606060606060606C2
:1056900006060606060606060606060606060606AA
:1056A0000606060606060606070707070707070792
:1056B000070707070707070707070707070707077A
:1056C000070707070707070707070707070707076A
:1056D000070707070707070707070707070707075A
:1056E0000707070707070707080808080808080842
:1056F000080808080808080808080808080808082A
:105700000808080808080808080808080808080819
:105710000808080808080808080808080808080809
:1057200008080808080808080808080808080808F9
:1057300008080808080808080808080808080808E9
:1057400008080808080808080808080808080808D9
:1057500008080808080808080808080808080808C9
:1057600008080808080808083C4A0000524A0000D7
:105770001A4A00001A4A00001A4A00001A4A000099
:10578000524A00001A4A00001A4A00001A4A000051
:105790001A4A0000944B00008E4A0000384B00006B
:1057A0001A4A00001A4A0000C24B00001A4A0000C0
:1057B0008E4A00001A4A00001A4A0000404B0000BE
:1057C00000000000B0090020180A0020800A002014
:1057D00000000000000000000000000000000000C9
:1057E00000000000000000000000000000000000B9
:1057F00000000000000000000000000000000000A9
:105800000000000000000000000000000000000098
:1058100003000000B009002000C2EB0B0084D71782
:10582000780B00200004002002040608000000009D
:04583000010203046A
:00000001FF
